{
  "abi": [
    {
      "type": "constructor",
      "inputs": [
        {
          "name": "_router",
          "type": "address",
          "internalType": "address"
        },
        {
          "name": "_link",
          "type": "address",
          "internalType": "address"
        }
      ],
      "stateMutability": "nonpayable"
    },
    {
      "type": "function",
      "name": "acceptOwnership",
      "inputs": [],
      "outputs": [],
      "stateMutability": "nonpayable"
    },
    {
      "type": "function",
      "name": "ccipReceive",
      "inputs": [
        {
          "name": "message",
          "type": "tuple",
          "internalType": "struct Client.Any2EVMMessage",
          "components": [
            {
              "name": "messageId",
              "type": "bytes32",
              "internalType": "bytes32"
            },
            {
              "name": "sourceChainSelector",
              "type": "uint64",
              "internalType": "uint64"
            },
            {
              "name": "sender",
              "type": "bytes",
              "internalType": "bytes"
            },
            {
              "name": "data",
              "type": "bytes",
              "internalType": "bytes"
            },
            {
              "name": "destTokenAmounts",
              "type": "tuple[]",
              "internalType": "struct Client.EVMTokenAmount[]",
              "components": [
                {
                  "name": "token",
                  "type": "address",
                  "internalType": "address"
                },
                {
                  "name": "amount",
                  "type": "uint256",
                  "internalType": "uint256"
                }
              ]
            }
          ]
        }
      ],
      "outputs": [],
      "stateMutability": "nonpayable"
    },
    {
      "type": "function",
      "name": "denylistChain",
      "inputs": [
        {
          "name": "_destinationChainSelector",
          "type": "uint64",
          "internalType": "uint64"
        }
      ],
      "outputs": [],
      "stateMutability": "nonpayable"
    },
    {
      "type": "function",
      "name": "getRouter",
      "inputs": [],
      "outputs": [
        {
          "name": "",
          "type": "address",
          "internalType": "address"
        }
      ],
      "stateMutability": "view"
    },
    {
      "type": "function",
      "name": "messageStack",
      "inputs": [
        {
          "name": "",
          "type": "bytes32",
          "internalType": "bytes32"
        }
      ],
      "outputs": [
        {
          "name": "operation",
          "type": "uint8",
          "internalType": "enum Buyer.OperationType"
        },
        {
          "name": "circomPubkey",
          "type": "tuple",
          "internalType": "struct Buyer.CircomPubkey",
          "components": [
            {
              "name": "Ax",
              "type": "uint256",
              "internalType": "uint256"
            },
            {
              "name": "Ay",
              "type": "uint256",
              "internalType": "uint256"
            }
          ]
        },
        {
          "name": "ethPubkey",
          "type": "tuple",
          "internalType": "struct Buyer.EthPubkey",
          "components": [
            {
              "name": "value",
              "type": "bytes32",
              "internalType": "bytes32"
            }
          ]
        },
        {
          "name": "encryptedRequest",
          "type": "bytes",
          "internalType": "bytes"
        },
        {
          "name": "message",
          "type": "string",
          "internalType": "string"
        },
        {
          "name": "proof",
          "type": "bytes",
          "internalType": "bytes"
        }
      ],
      "stateMutability": "view"
    },
    {
      "type": "function",
      "name": "owner",
      "inputs": [],
      "outputs": [
        {
          "name": "",
          "type": "address",
          "internalType": "address"
        }
      ],
      "stateMutability": "view"
    },
    {
      "type": "function",
      "name": "requestSupplyProof",
      "inputs": [
        {
          "name": "sellerAddress",
          "type": "address",
          "internalType": "address"
        },
        {
          "name": "sellerChainId",
          "type": "uint64",
          "internalType": "uint64"
        },
        {
          "name": "encryptedMessage",
          "type": "bytes",
          "internalType": "bytes"
        }
      ],
      "outputs": [
        {
          "name": "messageId",
          "type": "bytes32",
          "internalType": "bytes32"
        }
      ],
      "stateMutability": "nonpayable"
    },
    {
      "type": "function",
      "name": "sendCircomPubkey",
      "inputs": [
        {
          "name": "sellerAddress",
          "type": "address",
          "internalType": "address"
        },
        {
          "name": "sellerChainId",
          "type": "uint64",
          "internalType": "uint64"
        }
      ],
      "outputs": [
        {
          "name": "messageId",
          "type": "bytes32",
          "internalType": "bytes32"
        }
      ],
      "stateMutability": "nonpayable"
    },
    {
      "type": "function",
      "name": "setCircomPubkey",
      "inputs": [
        {
          "name": "Ax",
          "type": "uint256",
          "internalType": "uint256"
        },
        {
          "name": "Ay",
          "type": "uint256",
          "internalType": "uint256"
        }
      ],
      "outputs": [],
      "stateMutability": "nonpayable"
    },
    {
      "type": "function",
      "name": "setEthPubkey",
      "inputs": [
        {
          "name": "ethPubkeyValue",
          "type": "bytes32",
          "internalType": "bytes32"
        }
      ],
      "outputs": [],
      "stateMutability": "nonpayable"
    },
    {
      "type": "function",
      "name": "supportsInterface",
      "inputs": [
        {
          "name": "interfaceId",
          "type": "bytes4",
          "internalType": "bytes4"
        }
      ],
      "outputs": [
        {
          "name": "",
          "type": "bool",
          "internalType": "bool"
        }
      ],
      "stateMutability": "pure"
    },
    {
      "type": "function",
      "name": "transferOwnership",
      "inputs": [
        {
          "name": "to",
          "type": "address",
          "internalType": "address"
        }
      ],
      "outputs": [],
      "stateMutability": "nonpayable"
    },
    {
      "type": "function",
      "name": "verifyProof",
      "inputs": [
        {
          "name": "payload",
          "type": "bytes",
          "internalType": "bytes"
        }
      ],
      "outputs": [
        {
          "name": "isVerified",
          "type": "bool",
          "internalType": "bool"
        }
      ],
      "stateMutability": "nonpayable"
    },
    {
      "type": "function",
      "name": "whitelistChain",
      "inputs": [
        {
          "name": "_destinationChainSelector",
          "type": "uint64",
          "internalType": "uint64"
        }
      ],
      "outputs": [],
      "stateMutability": "nonpayable"
    },
    {
      "type": "function",
      "name": "whitelistedChains",
      "inputs": [
        {
          "name": "",
          "type": "uint64",
          "internalType": "uint64"
        }
      ],
      "outputs": [
        {
          "name": "",
          "type": "bool",
          "internalType": "bool"
        }
      ],
      "stateMutability": "view"
    },
    {
      "type": "function",
      "name": "withdraw",
      "inputs": [
        {
          "name": "_beneficiary",
          "type": "address",
          "internalType": "address"
        }
      ],
      "outputs": [],
      "stateMutability": "nonpayable"
    },
    {
      "type": "function",
      "name": "withdrawToken",
      "inputs": [
        {
          "name": "_beneficiary",
          "type": "address",
          "internalType": "address"
        },
        {
          "name": "_token",
          "type": "address",
          "internalType": "address"
        }
      ],
      "outputs": [],
      "stateMutability": "nonpayable"
    },
    {
      "type": "event",
      "name": "MessageReceived",
      "inputs": [
        {
          "name": "messageId",
          "type": "bytes32",
          "indexed": true,
          "internalType": "bytes32"
        },
        {
          "name": "sourceChainSelector",
          "type": "uint64",
          "indexed": true,
          "internalType": "uint64"
        },
        {
          "name": "sender",
          "type": "address",
          "indexed": false,
          "internalType": "address"
        },
        {
          "name": "operation",
          "type": "uint8",
          "indexed": false,
          "internalType": "enum Buyer.OperationType"
        },
        {
          "name": "text",
          "type": "string",
          "indexed": false,
          "internalType": "string"
        }
      ],
      "anonymous": false
    },
    {
      "type": "event",
      "name": "MessageSent",
      "inputs": [
        {
          "name": "receiver",
          "type": "address",
          "indexed": false,
          "internalType": "address"
        },
        {
          "name": "operation",
          "type": "uint8",
          "indexed": false,
          "internalType": "enum Buyer.OperationType"
        },
        {
          "name": "text",
          "type": "string",
          "indexed": false,
          "internalType": "string"
        }
      ],
      "anonymous": false
    },
    {
      "type": "event",
      "name": "OwnershipTransferRequested",
      "inputs": [
        {
          "name": "from",
          "type": "address",
          "indexed": true,
          "internalType": "address"
        },
        {
          "name": "to",
          "type": "address",
          "indexed": true,
          "internalType": "address"
        }
      ],
      "anonymous": false
    },
    {
      "type": "event",
      "name": "OwnershipTransferred",
      "inputs": [
        {
          "name": "from",
          "type": "address",
          "indexed": true,
          "internalType": "address"
        },
        {
          "name": "to",
          "type": "address",
          "indexed": true,
          "internalType": "address"
        }
      ],
      "anonymous": false
    },
    {
      "type": "error",
      "name": "DestinationChainNotAllowlisted",
      "inputs": [
        {
          "name": "destinationChainSelector",
          "type": "uint64",
          "internalType": "uint64"
        }
      ]
    },
    {
      "type": "error",
      "name": "DestinationChainNotWhitelisted",
      "inputs": [
        {
          "name": "destinationChainSelector",
          "type": "uint64",
          "internalType": "uint64"
        }
      ]
    },
    {
      "type": "error",
      "name": "FailedToWithdrawEth",
      "inputs": [
        {
          "name": "owner",
          "type": "address",
          "internalType": "address"
        },
        {
          "name": "target",
          "type": "address",
          "internalType": "address"
        },
        {
          "name": "value",
          "type": "uint256",
          "internalType": "uint256"
        }
      ]
    },
    {
      "type": "error",
      "name": "InvalidRouter",
      "inputs": [
        {
          "name": "router",
          "type": "address",
          "internalType": "address"
        }
      ]
    },
    {
      "type": "error",
      "name": "NotEnoughBalance",
      "inputs": [
        {
          "name": "currentBalance",
          "type": "uint256",
          "internalType": "uint256"
        },
        {
          "name": "calculatedFees",
          "type": "uint256",
          "internalType": "uint256"
        }
      ]
    },
    {
      "type": "error",
      "name": "NothingToWithdraw",
      "inputs": []
    },
    {
      "type": "error",
      "name": "SenderNotAllowlisted",
      "inputs": [
        {
          "name": "sender",
          "type": "address",
          "internalType": "address"
        }
      ]
    },
    {
      "type": "error",
      "name": "SourceChainNotAllowlisted",
      "inputs": [
        {
          "name": "sourceChainSelector",
          "type": "uint64",
          "internalType": "uint64"
        }
      ]
    },
    {
      "type": "error",
      "name": "UnknownOperation",
      "inputs": []
    }
  ],
  "bytecode": {
    "object": "0x60a06040523480156200001157600080fd5b50604051620025ac380380620025ac83398101604081905262000034916200024e565b8133806000816200008c5760405162461bcd60e51b815260206004820152601860248201527f43616e6e6f7420736574206f776e657220746f207a65726f000000000000000060448201526064015b60405180910390fd5b600080546001600160a01b0319166001600160a01b0384811691909117909155811615620000bf57620000bf8162000178565b5050506001600160a01b038116620000ee576040516335fdcccd60e21b81526000600482015260240162000083565b6001600160a01b03908116608052600380546001600160a01b03199081168584161790915560028054909116918316919091179055604051620001319062000223565b604051809103906000f0801580156200014e573d6000803e3d6000fd5b50600980546001600160a01b0319166001600160a01b039290921691909117905550620002869050565b336001600160a01b03821603620001d25760405162461bcd60e51b815260206004820152601760248201527f43616e6e6f74207472616e7366657220746f2073656c66000000000000000000604482015260640162000083565b600180546001600160a01b0319166001600160a01b0383811691821790925560008054604051929316917fed8889f560326eb138920d842192f0eb3dd22b4f139c87a2c57538e05bae12789190a350565b6106458062001f6783390190565b80516001600160a01b03811681146200024957600080fd5b919050565b600080604083850312156200026257600080fd5b6200026d8362000231565b91506200027d6020840162000231565b90509250929050565b608051611cbe620002a960003960008181610257015261071f0152611cbe6000f3fe608060405234801561001057600080fd5b506004361061010b5760003560e01c806385572ffb116100a2578063a01d2f1311610071578063a01d2f1314610242578063b0f479a114610255578063bb0be8011461027b578063d345ac7d1461028e578063f2fde38b146102a157600080fd5b806385572ffb146101d25780638d343465146101e55780638da5cb5b1461020a57806399942b961461022f57600080fd5b806351cff8d9116100de57806351cff8d91461018157806355c265fe14610194578063763574f6146101a757806379ba5097146101ca57600080fd5b806301ffc9a714610110578063031eeb4f1461013857806334625dcc146101595780633aeac4e11461016e575b600080fd5b61012361011e3660046111bc565b6102b4565b60405190151581526020015b60405180910390f35b61014b61014636600461121e565b6102eb565b60405190815260200161012f565b61016c610167366004611253565b6103d7565b005b61016c61017c36600461126e565b610400565b61016c61018f3660046112a7565b61050f565b6101236101a23660046113f3565b6105cb565b6101236101b5366004611253565b600a6020526000908152604090205460ff1681565b61016c61066a565b61016c6101e0366004611427565b610714565b6101f86101f3366004611461565b610773565b60405161012f96959493929190611502565b6000546001600160a01b03165b6040516001600160a01b03909116815260200161012f565b61016c61023d366004611573565b610964565b61014b610250366004611595565b61098a565b7f0000000000000000000000000000000000000000000000000000000000000000610217565b61016c610289366004611461565b610a99565b61016c61029c366004611253565b610ab4565b61016c6102af3660046112a7565b610ae0565b60006001600160e01b031982166385572ffb60e01b14806102e557506001600160e01b031982166301ffc9a760e01b145b92915050565b60006102f5610af1565b6001600160401b0382166000908152600a6020526040902054829060ff1661034057604051632328ea8d60e11b81526001600160401b03821660048201526024015b60405180910390fd5b6103cf84846040518060c00160405280600160048111156103635761036361147a565b8152604080518082018252600454815260055460208281019190915280840191909152815180820183526006548152828401528151808201835260008082526060850191909152825180830184528181526080850152825191820190925290815260a090910152610b46565b949350505050565b6103df610af1565b6001600160401b03166000908152600a60205260409020805460ff19169055565b610408610af1565b6040516370a0823160e01b81523060048201526000906001600160a01b038316906370a0823190602401602060405180830381865afa15801561044f573d6000803e3d6000fd5b505050506040513d601f19601f820116820180604052508101906104739190611624565b90508060000361049657604051630686827b60e51b815260040160405180910390fd5b60405163a9059cbb60e01b81526001600160a01b0384811660048301526024820183905283169063a9059cbb906044016020604051808303816000875af11580156104e5573d6000803e3d6000fd5b505050506040513d601f19601f82011682018060405250810190610509919061163d565b50505050565b610517610af1565b47600081900361053a57604051630686827b60e51b815260040160405180910390fd5b6000826001600160a01b03168260405160006040518083038185875af1925050503d8060008114610587576040519150601f19603f3d011682016040523d82523d6000602084013e61058c565b606091505b50509050806105c657604051639d11f56360e01b81523360048201526001600160a01b038416602482015260448101839052606401610337565b505050565b60006105d5610af1565b60095460405160009182916001600160a01b03909116906105f790869061165f565b6000604051808303816000865af19150503d8060008114610634576040519150601f19603f3d011682016040523d82523d6000602084013e610639565b606091505b50915091508161064c5760009250610663565b80806020019051810190610660919061163d565b92505b5050919050565b6001546001600160a01b031633146106bd5760405162461bcd60e51b815260206004820152601660248201527526bab9ba10313290383937b837b9b2b21037bbb732b960511b6044820152606401610337565b60008054336001600160a01b0319808316821784556001805490911690556040516001600160a01b0390921692909183917f8be0079c531659141344cd1fd0a4f28419497f9722a3daafe3b4186f6b6457e091a350565b336001600160a01b037f0000000000000000000000000000000000000000000000000000000000000000161461075f576040516335fdcccd60e21b8152336004820152602401610337565b61077061076b82611727565b610f9f565b50565b6008602090815260009182526040918290208054835180850185526001830154815260028301548185015284519384019094526003820154835260048201805460ff909216949392916107c5906117d3565b80601f01602080910402602001604051908101604052809291908181526020018280546107f1906117d3565b801561083e5780601f106108135761010080835404028352916020019161083e565b820191906000526020600020905b81548152906001019060200180831161082157829003601f168201915b505050505090806005018054610853906117d3565b80601f016020809104026020016040519081016040528092919081815260200182805461087f906117d3565b80156108cc5780601f106108a1576101008083540402835291602001916108cc565b820191906000526020600020905b8154815290600101906020018083116108af57829003601f168201915b5050505050908060060180546108e1906117d3565b80601f016020809104026020016040519081016040528092919081815260200182805461090d906117d3565b801561095a5780601f1061092f5761010080835404028352916020019161095a565b820191906000526020600020905b81548152906001019060200180831161093d57829003601f168201915b5050505050905086565b61096c610af1565b60408051808201909152828152602001819052600491909155600555565b6000610994610af1565b6001600160401b0384166000908152600a6020526040902054849060ff166109da57604051632328ea8d60e11b81526001600160401b0382166004820152602401610337565b610a8f86866040518060c00160405280600360048111156109fd576109fd61147a565b8152604080518082018252600454815260055460208281019190915280840191909152815180820183526006548152828401528151601f8b018290048202810182019092528982526060909201918a908a908190840183828082843760009201829052509385525050604080516020818101835284825280860191909152815190810182529283529092015250610b46565b9695505050505050565b610aa1610af1565b6040805160208101909152819052600655565b610abc610af1565b6001600160401b03166000908152600a60205260409020805460ff19166001179055565b610ae8610af1565b61077081611113565b6000546001600160a01b03163314610b445760405162461bcd60e51b815260206004820152601660248201527527b7363c9031b0b63630b1363290313c9037bbb732b960511b6044820152606401610337565b565b6000610b50610af1565b6040805160a081019091526001600160a01b03851660c08201526000908060e08101604051602081830303815290604052815260200184604051602001610b97919061180d565b60408051601f1981840301815291905281526020016000604051908082528060200260200182016040528015610bf357816020015b6040805180820190915260008082526020820152815260200190600190039081610bcc5790505b5081526002546001600160a01b0316602080830191909152604080518083018252620927c090819052815160248082019290925282518082039092018252604401825291820180516001600160e01b03166397a657c960e01b179052909101526003546040516320487ded60e01b81529192506000916001600160a01b03909116906320487ded90610c8b90889086906004016118a8565b602060405180830381865afa158015610ca8573d6000803e3d6000fd5b505050506040513d601f19601f82011682018060405250810190610ccc9190611624565b6002546040516370a0823160e01b81523060048201529192506001600160a01b0316906370a0823190602401602060405180830381865afa158015610d15573d6000803e3d6000fd5b505050506040513d601f19601f82011682018060405250810190610d399190611624565b811115610dd0576002546040516370a0823160e01b81523060048201526001600160a01b03909116906370a0823190602401602060405180830381865afa158015610d88573d6000803e3d6000fd5b505050506040513d601f19601f82011682018060405250810190610dac9190611624565b604051634787a10360e11b8152600481019190915260248101829052604401610337565b60025460035460405163095ea7b360e01b81526001600160a01b0391821660048201526024810184905291169063095ea7b3906044016020604051808303816000875af1158015610e25573d6000803e3d6000fd5b505050506040513d601f19601f82011682018060405250810190610e49919061163d565b506003546040516396f4e9f960e01b81526001600160a01b03909116906396f4e9f990610e7c90889086906004016118a8565b6020604051808303816000875af1158015610e9b573d6000803e3d6000fd5b505050506040513d601f19601f82011682018060405250810190610ebf9190611624565b6000818152600860205260409020855181549295508692829060ff19166001836004811115610ef057610ef061147a565b02179055506020828101518051600184015501516002820155604082015151600382015560608201516004820190610f2890826119cf565b5060808201516005820190610f3d90826119cf565b5060a08201516006820190610f5290826119cf565b5050845160808601516040517fbd1f1022102dd0f6eaefd3c92f46366d546448ab8807673ec2bc185dd73d6bfc9350610f8e928a929091611a8e565b60405180910390a150509392505050565b6020808201516001600160401b0381166000908152600a90925260409091205460ff16610fea57604051632328ea8d60e11b81526001600160401b0382166004820152602401610337565b81516007556060820151805160009161100b91810160209081019101611b82565b83516000908152600860205260409020815181549293508392829060ff1916600183600481111561103e5761103e61147a565b0217905550602082810151805160018401550151600282015560408201515160038201556060820151600482019061107690826119cf565b506080820151600582019061108b90826119cf565b5060a082015160068201906110a090826119cf565b5090505082602001516001600160401b031683600001517f4e3534816d92b985a6dbde0bbcb13c3fc3d0df4d8e5a4383075085127487354a85604001518060200190518101906110f09190611c6b565b8451608086015160405161110693929190611a8e565b60405180910390a3505050565b336001600160a01b0382160361116b5760405162461bcd60e51b815260206004820152601760248201527f43616e6e6f74207472616e7366657220746f2073656c660000000000000000006044820152606401610337565b600180546001600160a01b0319166001600160a01b0383811691821790925560008054604051929316917fed8889f560326eb138920d842192f0eb3dd22b4f139c87a2c57538e05bae12789190a350565b6000602082840312156111ce57600080fd5b81356001600160e01b0319811681146111e657600080fd5b9392505050565b6001600160a01b038116811461077057600080fd5b80356001600160401b038116811461121957600080fd5b919050565b6000806040838503121561123157600080fd5b823561123c816111ed565b915061124a60208401611202565b90509250929050565b60006020828403121561126557600080fd5b6111e682611202565b6000806040838503121561128157600080fd5b823561128c816111ed565b9150602083013561129c816111ed565b809150509250929050565b6000602082840312156112b957600080fd5b81356111e6816111ed565b634e487b7160e01b600052604160045260246000fd5b604080519081016001600160401b03811182821017156112fc576112fc6112c4565b60405290565b60405160a081016001600160401b03811182821017156112fc576112fc6112c4565b60405160c081016001600160401b03811182821017156112fc576112fc6112c4565b604051601f8201601f191681016001600160401b038111828210171561136e5761136e6112c4565b604052919050565b60006001600160401b0382111561138f5761138f6112c4565b50601f01601f191660200190565b600082601f8301126113ae57600080fd5b81356113c16113bc82611376565b611346565b8181528460208386010111156113d657600080fd5b816020850160208301376000918101602001919091529392505050565b60006020828403121561140557600080fd5b81356001600160401b0381111561141b57600080fd5b6103cf8482850161139d565b60006020828403121561143957600080fd5b81356001600160401b0381111561144f57600080fd5b820160a081850312156111e657600080fd5b60006020828403121561147357600080fd5b5035919050565b634e487b7160e01b600052602160045260246000fd5b600581106114ae57634e487b7160e01b600052602160045260246000fd5b9052565b60005b838110156114cd5781810151838201526020016114b5565b50506000910152565b600081518084526114ee8160208601602086016114b2565b601f01601f19169290920160200192915050565b61150c8188611490565b611523602082018780518252602090810151910152565b8451606082015260e06080820152600061154060e08301866114d6565b82810360a084015261155281866114d6565b905082810360c084015261156681856114d6565b9998505050505050505050565b6000806040838503121561158657600080fd5b50508035926020909101359150565b600080600080606085870312156115ab57600080fd5b84356115b6816111ed565b93506115c460208601611202565b925060408501356001600160401b03808211156115e057600080fd5b818701915087601f8301126115f457600080fd5b81358181111561160357600080fd5b88602082850101111561161557600080fd5b95989497505060200194505050565b60006020828403121561163657600080fd5b5051919050565b60006020828403121561164f57600080fd5b815180151581146111e657600080fd5b600082516116718184602087016114b2565b9190910192915050565b600082601f83011261168c57600080fd5b813560206001600160401b038211156116a7576116a76112c4565b6116b5818360051b01611346565b82815260069290921b840181019181810190868411156116d457600080fd5b8286015b8481101561171c57604081890312156116f15760008081fd5b6116f96112da565b8135611704816111ed565b815281850135858201528352918301916040016116d8565b509695505050505050565b600060a0823603121561173957600080fd5b611741611302565b8235815261175160208401611202565b602082015260408301356001600160401b038082111561177057600080fd5b61177c3683870161139d565b6040840152606085013591508082111561179557600080fd5b6117a13683870161139d565b606084015260808501359150808211156117ba57600080fd5b506117c73682860161167b565b60808301525092915050565b600181811c908216806117e757607f821691505b60208210810361180757634e487b7160e01b600052602260045260246000fd5b50919050565b6020815261181f602082018351611490565b6000602083015161183d604084018280518252602090810151910152565b506040830151516080830152606083015160e060a08401526118636101008401826114d6565b90506080840151601f19808584030160c086015261188183836114d6565b925060a08601519150808584030160e08601525061189f82826114d6565b95945050505050565b600060406001600160401b038516835260208181850152845160a0838601526118d460e08601826114d6565b905081860151603f19808784030160608801526118f183836114d6565b88860151888203830160808a01528051808352908601945060009350908501905b8084101561194457845180516001600160a01b0316835286015186830152938501936001939093019290860190611912565b5060608901516001600160a01b031660a08901526080890151888203830160c08a0152955061197381876114d6565b9a9950505050505050505050565b601f8211156105c657600081815260208120601f850160051c810160208610156119a85750805b601f850160051c820191505b818110156119c7578281556001016119b4565b505050505050565b81516001600160401b038111156119e8576119e86112c4565b6119fc816119f684546117d3565b84611981565b602080601f831160018114611a315760008415611a195750858301515b600019600386901b1c1916600185901b1785556119c7565b600085815260208120601f198616915b82811015611a6057888601518255948401946001909101908401611a41565b5085821015611a7e5787850151600019600388901b60f8161c191681555b5050505050600190811b01905550565b6001600160a01b0384168152611aa76020820184611490565b60606040820152600061189f60608301846114d6565b80516005811061121957600080fd5b600060408284031215611ade57600080fd5b611ae66112da565b9050815181526020820151602082015292915050565b600060208284031215611b0e57600080fd5b604051602081018181106001600160401b0382111715611b3057611b306112c4565b6040529151825250919050565b600082601f830112611b4e57600080fd5b8151611b5c6113bc82611376565b818152846020838601011115611b7157600080fd5b6103cf8260208301602087016114b2565b600060208284031215611b9457600080fd5b81516001600160401b0380821115611bab57600080fd5b9083019060e08286031215611bbf57600080fd5b611bc7611324565b611bd083611abd565b8152611bdf8660208501611acc565b6020820152611bf18660608501611afc565b6040820152608083015182811115611c0857600080fd5b611c1487828601611b3d565b60608301525060a083015182811115611c2c57600080fd5b611c3887828601611b3d565b60808301525060c083015182811115611c5057600080fd5b611c5c87828601611b3d565b60a08301525095945050505050565b600060208284031215611c7d57600080fd5b81516111e6816111ed56fea264697066735822122052274dd4342bfef7e28bf81e1b9e0c52dae180cf69cba10c3ba078e8ddd4aa4b64736f6c63430008130033608060405234801561001057600080fd5b50610625806100206000396000f3fe608060405234801561001057600080fd5b506004361061002b5760003560e01c806311479fea14610030575b600080fd5b61004361003e366004610589565b610057565b604051901515815260200160405180910390f35b600061051a565b7f30644e72e131a029b85045b68181585d97816a916871ca8d3c208c16d87cfd47811061008f576000805260206000f35b50565b600060405183815284602082015285604082015260408160608360076107d05a03fa9150816100c5576000805260206000f35b825160408201526020830151606082015260408360808360066107d05a03fa915050806100f6576000805260206000f35b5050505050565b7f1625a098b02b4ca3240adb3446000022c88a56c95a52c95ce9f2b8f43205184885527f29d01786cb891c52ea933ad3f5cbe56b47212c8f2c8928c78e37f502e5bdc9d860208601526000608086018661019a87357f298ab1f7b8dfddd7b45b1b15734817c3c171700e8118c6f4865bf35d732112907f1b5ee357ddf1ab58fc5ec95a0c75411a80238e9afc18ae1a5c9cf18cf6c3d33b84610092565b6101ea60208801357f02d57112f375abdab6b7ff75a24c23e989a109ba94c082ec76baff2030caf5377f02e0af2b9af0c1b50cd84cb8de902a8d57669898bd27690e50a516958e5c2da584610092565b61023a60408801357f21af9feae20eea52d96e0c420c69787ce901cfb7d95d4ef49e5e36d5232dc2c37f2b90c81f403f80a450fc6375ae9382f6b42f3d6310efe42a297d8b41ef53e1a884610092565b50823581527f30644e72e131a029b85045b68181585d97816a916871ca8d3c208c16d87cfd4760208401357f30644e72e131a029b85045b68181585d97816a916871ca8d3c208c16d87cfd4703066020820152833560408201526020840135606082015260408401356080820152606084013560a08201527f2d4d9aa7e302d9df41749d5507949d05dbea33fbb16c643b22f599a2be6df2e260c08201527f14bedd503c37ceb061d8ec60209fe345ce89830a19230301f076caff004d192660e08201527f0967032fcbf776d1afc985f88877f182d38480a653f2decaa9794cbc3bf3060c6101008201527f0e187847ad4c798374d0d6732bf501847dd68bc0e071241e0213bc7fc13db7ab6101208201527f304cfbd1e08a704a99f5e847d93f8c3caafddec46b7a0d379da69a4d112346a76101408201527f1739c1b1a457a8c7313123d24d2f9192f896b7c63eea05a9d57f06547ad0cec8610160820152600087015161018082015260206000018701516101a08201527f198e9393920d483a7260bfb731fb5d25f1aa493335a9e71297e485b7aef312c26101c08201527f1800deef121f1e76426a00665e5c4479674322d4f75edadd46debd5cd992f6ed6101e08201527f090689d0585ff075ec9e99ad690c3395bc4b313370b38ef355acdadcd122975b6102008201527f12c85ea5db8c6deb4aab71808dcb408fe3d1e7690c43d37b4ce6cc0166fa7daa610220820152843561024082015260208501356102608201527f029f8a110b366d15ff04f88382523cfe980e3be715712e6f5ca8914b7ae70bb86102808201527f0c2983a7c354edec58b669c1b848d56ac89a4a6e24d237c183505dc22990ded76102a08201527f06351c92e9eca0e0596a9ab43dad83099ff0a56b4f6667f7c660d972d543546a6102c08201527f196f8a0c9b49034cc53d34a2e614b909736811c18c234027cf73897eda4e746e6102e08201526020816103008360086107d05a03fa9051169695505050505050565b6040516103808101604052610532600084013561005e565b61053f602084013561005e565b61054c604084013561005e565b610559606084013561005e565b610566818486888a6100fd565b90508060005260206000f35b806040810183101561058357600080fd5b92915050565b6000806000806101608086880312156105a157600080fd5b6105ab8787610572565b945060c08601878111156105be57600080fd5b6040870194506105ce8882610572565b9350508681870111156105e057600080fd5b5092959194509261010001915056fea2646970667358221220a04d5d10c8ac4ed86e0160a49c7ae9c1c098ef6007827c31c67f4d0360f90fe764736f6c63430008130033",
    "linkReferences": {}
  },
  "methodIdentifiers": {
    "acceptOwnership()": "79ba5097",
    "ccipReceive((bytes32,uint64,bytes,bytes,(address,uint256)[]))": "85572ffb",
    "denylistChain(uint64)": "34625dcc",
    "getRouter()": "b0f479a1",
    "messageStack(bytes32)": "8d343465",
    "owner()": "8da5cb5b",
    "requestSupplyProof(address,uint64,bytes)": "a01d2f13",
    "sendCircomPubkey(address,uint64)": "031eeb4f",
    "setCircomPubkey(uint256,uint256)": "99942b96",
    "setEthPubkey(bytes32)": "bb0be801",
    "supportsInterface(bytes4)": "01ffc9a7",
    "transferOwnership(address)": "f2fde38b",
    "verifyProof(bytes)": "55c265fe",
    "whitelistChain(uint64)": "d345ac7d",
    "whitelistedChains(uint64)": "763574f6",
    "withdraw(address)": "51cff8d9",
    "withdrawToken(address,address)": "3aeac4e1"
  },
  "id": 28
}