{"abi":[{"type":"constructor","inputs":[{"name":"_router","type":"address","internalType":"address"},{"name":"_link","type":"address","internalType":"address"}],"stateMutability":"nonpayable"},{"type":"function","name":"acceptOwnership","inputs":[],"outputs":[],"stateMutability":"nonpayable"},{"type":"function","name":"ccipReceive","inputs":[{"name":"message","type":"tuple","internalType":"struct Client.Any2EVMMessage","components":[{"name":"messageId","type":"bytes32","internalType":"bytes32"},{"name":"sourceChainSelector","type":"uint64","internalType":"uint64"},{"name":"sender","type":"bytes","internalType":"bytes"},{"name":"data","type":"bytes","internalType":"bytes"},{"name":"destTokenAmounts","type":"tuple[]","internalType":"struct Client.EVMTokenAmount[]","components":[{"name":"token","type":"address","internalType":"address"},{"name":"amount","type":"uint256","internalType":"uint256"}]}]}],"outputs":[],"stateMutability":"nonpayable"},{"type":"function","name":"denylistChain","inputs":[{"name":"_destinationChainSelector","type":"uint64","internalType":"uint64"}],"outputs":[],"stateMutability":"nonpayable"},{"type":"function","name":"getRouter","inputs":[],"outputs":[{"name":"","type":"address","internalType":"address"}],"stateMutability":"view"},{"type":"function","name":"messageStack","inputs":[{"name":"","type":"bytes32","internalType":"bytes32"}],"outputs":[{"name":"operation","type":"uint8","internalType":"enum TradeEntity.OperationType"},{"name":"circomPubkey","type":"tuple","internalType":"struct TradeEntity.CircomPubkey","components":[{"name":"Ax","type":"uint256","internalType":"uint256"},{"name":"Ay","type":"uint256","internalType":"uint256"}]},{"name":"ethPubkey","type":"tuple","internalType":"struct TradeEntity.EthPubkey","components":[{"name":"value","type":"bytes32","internalType":"bytes32"}]},{"name":"encryptedRequest","type":"bytes","internalType":"bytes"},{"name":"message","type":"string","internalType":"string"},{"name":"proof","type":"bytes","internalType":"bytes"}],"stateMutability":"view"},{"type":"function","name":"owner","inputs":[],"outputs":[{"name":"","type":"address","internalType":"address"}],"stateMutability":"view"},{"type":"function","name":"provideCircomPubkey","inputs":[{"name":"sellerAddress","type":"address","internalType":"address"},{"name":"sellerChainId","type":"uint64","internalType":"uint64"}],"outputs":[{"name":"messageId","type":"bytes32","internalType":"bytes32"}],"stateMutability":"nonpayable"},{"type":"function","name":"requestSupplyProof","inputs":[{"name":"sellerAddress","type":"address","internalType":"address"},{"name":"sellerChainId","type":"uint64","internalType":"uint64"},{"name":"encryptedMessage","type":"bytes","internalType":"bytes"}],"outputs":[{"name":"messageId","type":"bytes32","internalType":"bytes32"}],"stateMutability":"nonpayable"},{"type":"function","name":"setCircomPubkey","inputs":[{"name":"Ax","type":"uint256","internalType":"uint256"},{"name":"Ay","type":"uint256","internalType":"uint256"}],"outputs":[],"stateMutability":"nonpayable"},{"type":"function","name":"setEthPubkey","inputs":[{"name":"_ethPubkeyValue","type":"bytes32","internalType":"bytes32"}],"outputs":[],"stateMutability":"nonpayable"},{"type":"function","name":"supportsInterface","inputs":[{"name":"interfaceId","type":"bytes4","internalType":"bytes4"}],"outputs":[{"name":"","type":"bool","internalType":"bool"}],"stateMutability":"pure"},{"type":"function","name":"transferOwnership","inputs":[{"name":"to","type":"address","internalType":"address"}],"outputs":[],"stateMutability":"nonpayable"},{"type":"function","name":"verifyProof","inputs":[{"name":"payload","type":"bytes","internalType":"bytes"}],"outputs":[{"name":"isVerified","type":"bool","internalType":"bool"}],"stateMutability":"nonpayable"},{"type":"function","name":"whitelistChain","inputs":[{"name":"_destinationChainSelector","type":"uint64","internalType":"uint64"}],"outputs":[],"stateMutability":"nonpayable"},{"type":"function","name":"whitelistedChains","inputs":[{"name":"","type":"uint64","internalType":"uint64"}],"outputs":[{"name":"","type":"bool","internalType":"bool"}],"stateMutability":"view"},{"type":"function","name":"withdraw","inputs":[{"name":"_beneficiary","type":"address","internalType":"address"}],"outputs":[],"stateMutability":"nonpayable"},{"type":"function","name":"withdrawToken","inputs":[{"name":"_beneficiary","type":"address","internalType":"address"},{"name":"_token","type":"address","internalType":"address"}],"outputs":[],"stateMutability":"nonpayable"},{"type":"event","name":"MessageReceived","inputs":[{"name":"messageId","type":"bytes32","indexed":true,"internalType":"bytes32"},{"name":"sourceChainSelector","type":"uint64","indexed":true,"internalType":"uint64"},{"name":"sender","type":"address","indexed":false,"internalType":"address"},{"name":"operation","type":"uint8","indexed":false,"internalType":"enum TradeEntity.OperationType"},{"name":"text","type":"string","indexed":false,"internalType":"string"}],"anonymous":false},{"type":"event","name":"MessageSent","inputs":[{"name":"receiver","type":"address","indexed":false,"internalType":"address"},{"name":"operation","type":"uint8","indexed":false,"internalType":"enum TradeEntity.OperationType"},{"name":"text","type":"string","indexed":false,"internalType":"string"}],"anonymous":false},{"type":"event","name":"OwnershipTransferRequested","inputs":[{"name":"from","type":"address","indexed":true,"internalType":"address"},{"name":"to","type":"address","indexed":true,"internalType":"address"}],"anonymous":false},{"type":"event","name":"OwnershipTransferred","inputs":[{"name":"from","type":"address","indexed":true,"internalType":"address"},{"name":"to","type":"address","indexed":true,"internalType":"address"}],"anonymous":false},{"type":"error","name":"DestinationChainNotAllowlisted","inputs":[{"name":"destinationChainSelector","type":"uint64","internalType":"uint64"}]},{"type":"error","name":"DestinationChainNotWhitelisted","inputs":[{"name":"destinationChainSelector","type":"uint64","internalType":"uint64"}]},{"type":"error","name":"FailedToWithdrawEth","inputs":[{"name":"owner","type":"address","internalType":"address"},{"name":"target","type":"address","internalType":"address"},{"name":"value","type":"uint256","internalType":"uint256"}]},{"type":"error","name":"InvalidRouter","inputs":[{"name":"router","type":"address","internalType":"address"}]},{"type":"error","name":"NotEnoughBalance","inputs":[{"name":"currentBalance","type":"uint256","internalType":"uint256"},{"name":"calculatedFees","type":"uint256","internalType":"uint256"}]},{"type":"error","name":"NothingToWithdraw","inputs":[]},{"type":"error","name":"SenderNotAllowlisted","inputs":[{"name":"sender","type":"address","internalType":"address"}]},{"type":"error","name":"SourceChainNotAllowlisted","inputs":[{"name":"sourceChainSelector","type":"uint64","internalType":"uint64"}]},{"type":"error","name":"UnknownOperation","inputs":[]}],"bytecode":{"object":"0x60a06040523480156200001157600080fd5b50604051620025f2380380620025f283398101604081905262000034916200029e565b81818133806000816200008e5760405162461bcd60e51b815260206004820152601860248201527f43616e6e6f7420736574206f776e657220746f207a65726f000000000000000060448201526064015b60405180910390fd5b600080546001600160a01b0319166001600160a01b0384811691909117909155811615620000c157620000c181620001c8565b5050506001600160a01b038116620000f0576040516335fdcccd60e21b81526000600482015260240162000085565b6001600160a01b03908116608052600380546001600160a01b03199081168584161790915560028054909116918316919091179055604051620001339062000273565b604051809103906000f08015801562000150573d6000803e3d6000fd5b50600980546001600160a01b0319166001600160a01b03929092169190911790555050604051620001819062000273565b604051809103906000f0801580156200019e573d6000803e3d6000fd5b50600980546001600160a01b0319166001600160a01b039290921691909117905550620002d69050565b336001600160a01b03821603620002225760405162461bcd60e51b815260206004820152601760248201527f43616e6e6f74207472616e7366657220746f2073656c66000000000000000000604482015260640162000085565b600180546001600160a01b0319166001600160a01b0383811691821790925560008054604051929316917fed8889f560326eb138920d842192f0eb3dd22b4f139c87a2c57538e05bae12789190a350565b6106448062001fae83390190565b80516001600160a01b03811681146200029957600080fd5b919050565b60008060408385031215620002b257600080fd5b620002bd8362000281565b9150620002cd6020840162000281565b90509250929050565b608051611cb5620002f96000396000818161025701526107150152611cb56000f3fe608060405234801561001057600080fd5b506004361061010b5760003560e01c806385572ffb116100a2578063a01d2f1311610071578063a01d2f1314610242578063b0f479a114610255578063bb0be8011461027b578063d345ac7d1461028e578063f2fde38b146102a157600080fd5b806385572ffb146101d25780638d343465146101e55780638da5cb5b1461020a57806399942b961461022f57600080fd5b806355c265fe116100de57806355c265fe14610173578063592e7a3314610186578063763574f6146101a757806379ba5097146101ca57600080fd5b806301ffc9a71461011057806334625dcc146101385780633aeac4e11461014d57806351cff8d914610160575b600080fd5b61012361011e3660046111b3565b6102b4565b60405190151581526020015b60405180910390f35b61014b610146366004611200565b6102eb565b005b61014b61015b366004611230565b610314565b61014b61016e366004611269565b610423565b6101236101813660046113b5565b6104e4565b6101996101943660046113e9565b610583565b60405190815260200161012f565b6101236101b5366004611200565b600a6020526000908152604090205460ff1681565b61014b610660565b61014b6101e036600461141e565b61070a565b6101f86101f3366004611458565b610769565b60405161012f969594939291906114f9565b6000546001600160a01b03165b6040516001600160a01b03909116815260200161012f565b61014b61023d36600461156a565b61095a565b61019961025036600461158c565b610980565b7f0000000000000000000000000000000000000000000000000000000000000000610217565b61014b610289366004611458565b610a8f565b61014b61029c366004611200565b610aaa565b61014b6102af366004611269565b610ad6565b60006001600160e01b031982166385572ffb60e01b14806102e557506001600160e01b031982166301ffc9a760e01b145b92915050565b6102f3610ae7565b6001600160401b03166000908152600a60205260409020805460ff19169055565b61031c610ae7565b6040516370a0823160e01b81523060048201526000906001600160a01b038316906370a0823190602401602060405180830381865afa158015610363573d6000803e3d6000fd5b505050506040513d601f19601f82011682018060405250810190610387919061161b565b9050806000036103aa57604051630686827b60e51b815260040160405180910390fd5b60405163a9059cbb60e01b81526001600160a01b0384811660048301526024820183905283169063a9059cbb906044016020604051808303816000875af11580156103f9573d6000803e3d6000fd5b505050506040513d601f19601f8201168201806040525081019061041d9190611634565b50505050565b61042b610ae7565b47600081900361044e57604051630686827b60e51b815260040160405180910390fd5b6000826001600160a01b03168260405160006040518083038185875af1925050503d806000811461049b576040519150601f19603f3d011682016040523d82523d6000602084013e6104a0565b606091505b50509050806104df57604051639d11f56360e01b81523360048201526001600160a01b0384166024820152604481018390526064015b60405180910390fd5b505050565b60006104ee610ae7565b60095460405160009182916001600160a01b0390911690610510908690611656565b6000604051808303816000865af19150503d806000811461054d576040519150601f19603f3d011682016040523d82523d6000602084013e610552565b606091505b509150915081610565576000925061057c565b808060200190518101906105799190611634565b92505b5050919050565b6001600160401b0381166000908152600a6020526040812054829060ff166105c957604051632328ea8d60e11b81526001600160401b03821660048201526024016104d6565b61065884846040518060c00160405280600160048111156105ec576105ec611471565b8152604080518082018252600454815260055460208281019190915280840191909152815180820183526006548152828401528151808201835260008082526060850191909152825180830184528181526080850152825191820190925290815260a090910152610b3c565b949350505050565b6001546001600160a01b031633146106b35760405162461bcd60e51b815260206004820152601660248201527526bab9ba10313290383937b837b9b2b21037bbb732b960511b60448201526064016104d6565b60008054336001600160a01b0319808316821784556001805490911690556040516001600160a01b0390921692909183917f8be0079c531659141344cd1fd0a4f28419497f9722a3daafe3b4186f6b6457e091a350565b336001600160a01b037f00000000000000000000000000000000000000000000000000000000000000001614610755576040516335fdcccd60e21b81523360048201526024016104d6565b6107666107618261171e565b610f96565b50565b6008602090815260009182526040918290208054835180850185526001830154815260028301548185015284519384019094526003820154835260048201805460ff909216949392916107bb906117ca565b80601f01602080910402602001604051908101604052809291908181526020018280546107e7906117ca565b80156108345780601f1061080957610100808354040283529160200191610834565b820191906000526020600020905b81548152906001019060200180831161081757829003601f168201915b505050505090806005018054610849906117ca565b80601f0160208091040260200160405190810160405280929190818152602001828054610875906117ca565b80156108c25780601f10610897576101008083540402835291602001916108c2565b820191906000526020600020905b8154815290600101906020018083116108a557829003601f168201915b5050505050908060060180546108d7906117ca565b80601f0160208091040260200160405190810160405280929190818152602001828054610903906117ca565b80156109505780601f1061092557610100808354040283529160200191610950565b820191906000526020600020905b81548152906001019060200180831161093357829003601f168201915b5050505050905086565b610962610ae7565b60408051808201909152828152602001819052600491909155600555565b600061098a610ae7565b6001600160401b0384166000908152600a6020526040902054849060ff166109d057604051632328ea8d60e11b81526001600160401b03821660048201526024016104d6565b610a8586866040518060c00160405280600360048111156109f3576109f3611471565b8152604080518082018252600454815260055460208281019190915280840191909152815180820183526006548152828401528151601f8b018290048202810182019092528982526060909201918a908a908190840183828082843760009201829052509385525050604080516020818101835284825280860191909152815190810182529283529092015250610b3c565b9695505050505050565b610a97610ae7565b6040805160208101909152819052600655565b610ab2610ae7565b6001600160401b03166000908152600a60205260409020805460ff19166001179055565b610ade610ae7565b6107668161110a565b6000546001600160a01b03163314610b3a5760405162461bcd60e51b815260206004820152601660248201527527b7363c9031b0b63630b1363290313c9037bbb732b960511b60448201526064016104d6565b565b6001600160401b0382166000908152600a6020526040812054839060ff16610b8257604051632328ea8d60e11b81526001600160401b03821660048201526024016104d6565b6040805160a081019091526001600160a01b03861660c08201526000908060e08101604051602081830303815290604052815260200185604051602001610bc99190611804565b60408051601f1981840301815291905281526020016000604051908082528060200260200182016040528015610c2557816020015b6040805180820190915260008082526020820152815260200190600190039081610bfe5790505b5081526002546001600160a01b0390811660208084019190915260408051918201815260008083529381019190915260035490516320487ded60e01b815293945091929116906320487ded90610c81908990869060040161189f565b602060405180830381865afa158015610c9e573d6000803e3d6000fd5b505050506040513d601f19601f82011682018060405250810190610cc2919061161b565b6002546040516370a0823160e01b81523060048201529192506001600160a01b0316906370a0823190602401602060405180830381865afa158015610d0b573d6000803e3d6000fd5b505050506040513d601f19601f82011682018060405250810190610d2f919061161b565b811115610dc6576002546040516370a0823160e01b81523060048201526001600160a01b03909116906370a0823190602401602060405180830381865afa158015610d7e573d6000803e3d6000fd5b505050506040513d601f19601f82011682018060405250810190610da2919061161b565b604051634787a10360e11b81526004810191909152602481018290526044016104d6565b60025460035460405163095ea7b360e01b81526001600160a01b0391821660048201526024810184905291169063095ea7b3906044016020604051808303816000875af1158015610e1b573d6000803e3d6000fd5b505050506040513d601f19601f82011682018060405250810190610e3f9190611634565b506003546040516396f4e9f960e01b81526001600160a01b03909116906396f4e9f990610e72908990869060040161189f565b6020604051808303816000875af1158015610e91573d6000803e3d6000fd5b505050506040513d601f19601f82011682018060405250810190610eb5919061161b565b6000818152600860205260409020865181549296508792829060ff19166001836004811115610ee657610ee6611471565b02179055506020828101518051600184015501516002820155604082015151600382015560608201516004820190610f1e90826119c6565b5060808201516005820190610f3390826119c6565b5060a08201516006820190610f4890826119c6565b5050855160808701516040517fbd1f1022102dd0f6eaefd3c92f46366d546448ab8807673ec2bc185dd73d6bfc9350610f84928b929091611a85565b60405180910390a15050509392505050565b6020808201516001600160401b0381166000908152600a90925260409091205460ff16610fe157604051632328ea8d60e11b81526001600160401b03821660048201526024016104d6565b81516007556060820151805160009161100291810160209081019101611b79565b83516000908152600860205260409020815181549293508392829060ff1916600183600481111561103557611035611471565b0217905550602082810151805160018401550151600282015560408201515160038201556060820151600482019061106d90826119c6565b506080820151600582019061108290826119c6565b5060a0820151600682019061109790826119c6565b5090505082602001516001600160401b031683600001517f4e3534816d92b985a6dbde0bbcb13c3fc3d0df4d8e5a4383075085127487354a85604001518060200190518101906110e79190611c62565b845160808601516040516110fd93929190611a85565b60405180910390a3505050565b336001600160a01b038216036111625760405162461bcd60e51b815260206004820152601760248201527f43616e6e6f74207472616e7366657220746f2073656c6600000000000000000060448201526064016104d6565b600180546001600160a01b0319166001600160a01b0383811691821790925560008054604051929316917fed8889f560326eb138920d842192f0eb3dd22b4f139c87a2c57538e05bae12789190a350565b6000602082840312156111c557600080fd5b81356001600160e01b0319811681146111dd57600080fd5b9392505050565b80356001600160401b03811681146111fb57600080fd5b919050565b60006020828403121561121257600080fd5b6111dd826111e4565b6001600160a01b038116811461076657600080fd5b6000806040838503121561124357600080fd5b823561124e8161121b565b9150602083013561125e8161121b565b809150509250929050565b60006020828403121561127b57600080fd5b81356111dd8161121b565b634e487b7160e01b600052604160045260246000fd5b604080519081016001600160401b03811182821017156112be576112be611286565b60405290565b60405160a081016001600160401b03811182821017156112be576112be611286565b60405160c081016001600160401b03811182821017156112be576112be611286565b604051601f8201601f191681016001600160401b038111828210171561133057611330611286565b604052919050565b60006001600160401b0382111561135157611351611286565b50601f01601f191660200190565b600082601f83011261137057600080fd5b813561138361137e82611338565b611308565b81815284602083860101111561139857600080fd5b816020850160208301376000918101602001919091529392505050565b6000602082840312156113c757600080fd5b81356001600160401b038111156113dd57600080fd5b6106588482850161135f565b600080604083850312156113fc57600080fd5b82356114078161121b565b9150611415602084016111e4565b90509250929050565b60006020828403121561143057600080fd5b81356001600160401b0381111561144657600080fd5b820160a081850312156111dd57600080fd5b60006020828403121561146a57600080fd5b5035919050565b634e487b7160e01b600052602160045260246000fd5b600581106114a557634e487b7160e01b600052602160045260246000fd5b9052565b60005b838110156114c45781810151838201526020016114ac565b50506000910152565b600081518084526114e58160208601602086016114a9565b601f01601f19169290920160200192915050565b6115038188611487565b61151a602082018780518252602090810151910152565b8451606082015260e06080820152600061153760e08301866114cd565b82810360a084015261154981866114cd565b905082810360c084015261155d81856114cd565b9998505050505050505050565b6000806040838503121561157d57600080fd5b50508035926020909101359150565b600080600080606085870312156115a257600080fd5b84356115ad8161121b565b93506115bb602086016111e4565b925060408501356001600160401b03808211156115d757600080fd5b818701915087601f8301126115eb57600080fd5b8135818111156115fa57600080fd5b88602082850101111561160c57600080fd5b95989497505060200194505050565b60006020828403121561162d57600080fd5b5051919050565b60006020828403121561164657600080fd5b815180151581146111dd57600080fd5b600082516116688184602087016114a9565b9190910192915050565b600082601f83011261168357600080fd5b813560206001600160401b0382111561169e5761169e611286565b6116ac818360051b01611308565b82815260069290921b840181019181810190868411156116cb57600080fd5b8286015b8481101561171357604081890312156116e85760008081fd5b6116f061129c565b81356116fb8161121b565b815281850135858201528352918301916040016116cf565b509695505050505050565b600060a0823603121561173057600080fd5b6117386112c4565b82358152611748602084016111e4565b602082015260408301356001600160401b038082111561176757600080fd5b6117733683870161135f565b6040840152606085013591508082111561178c57600080fd5b6117983683870161135f565b606084015260808501359150808211156117b157600080fd5b506117be36828601611672565b60808301525092915050565b600181811c908216806117de57607f821691505b6020821081036117fe57634e487b7160e01b600052602260045260246000fd5b50919050565b60208152611816602082018351611487565b60006020830151611834604084018280518252602090810151910152565b506040830151516080830152606083015160e060a084015261185a6101008401826114cd565b90506080840151601f19808584030160c086015261187883836114cd565b925060a08601519150808584030160e08601525061189682826114cd565b95945050505050565b600060406001600160401b038516835260208181850152845160a0838601526118cb60e08601826114cd565b905081860151603f19808784030160608801526118e883836114cd565b88860151888203830160808a01528051808352908601945060009350908501905b8084101561193b57845180516001600160a01b0316835286015186830152938501936001939093019290860190611909565b5060608901516001600160a01b031660a08901526080890151888203830160c08a0152955061196a81876114cd565b9a9950505050505050505050565b601f8211156104df57600081815260208120601f850160051c8101602086101561199f5750805b601f850160051c820191505b818110156119be578281556001016119ab565b505050505050565b81516001600160401b038111156119df576119df611286565b6119f3816119ed84546117ca565b84611978565b602080601f831160018114611a285760008415611a105750858301515b600019600386901b1c1916600185901b1785556119be565b600085815260208120601f198616915b82811015611a5757888601518255948401946001909101908401611a38565b5085821015611a755787850151600019600388901b60f8161c191681555b5050505050600190811b01905550565b6001600160a01b0384168152611a9e6020820184611487565b60606040820152600061189660608301846114cd565b8051600581106111fb57600080fd5b600060408284031215611ad557600080fd5b611add61129c565b9050815181526020820151602082015292915050565b600060208284031215611b0557600080fd5b604051602081018181106001600160401b0382111715611b2757611b27611286565b6040529151825250919050565b600082601f830112611b4557600080fd5b8151611b5361137e82611338565b818152846020838601011115611b6857600080fd5b6106588260208301602087016114a9565b600060208284031215611b8b57600080fd5b81516001600160401b0380821115611ba257600080fd5b9083019060e08286031215611bb657600080fd5b611bbe6112e6565b611bc783611ab4565b8152611bd68660208501611ac3565b6020820152611be88660608501611af3565b6040820152608083015182811115611bff57600080fd5b611c0b87828601611b34565b60608301525060a083015182811115611c2357600080fd5b611c2f87828601611b34565b60808301525060c083015182811115611c4757600080fd5b611c5387828601611b34565b60a08301525095945050505050565b600060208284031215611c7457600080fd5b81516111dd8161121b56fea264697066735822122074926b08a6187c50d5fc8ae52ea1314fa223a2241eb686fe278e585e25b2b0ca64736f6c63430008130033608060405234801561001057600080fd5b50610624806100206000396000f3fe608060405234801561001057600080fd5b506004361061002b5760003560e01c806311479fea14610030575b600080fd5b61004361003e366004610588565b610057565b604051901515815260200160405180910390f35b6000610519565b7f30644e72e131a029b85045b68181585d97816a916871ca8d3c208c16d87cfd47811061008f576000805260206000f35b50565b600060405183815284602082015285604082015260408160608360076107d05a03fa9150816100c5576000805260206000f35b825160408201526020830151606082015260408360808360066107d05a03fa915050806100f6576000805260206000f35b5050505050565b7f1625a098b02b4ca3240adb3446000022c88a56c95a52c95ce9f2b8f43205184885527f29d01786cb891c52ea933ad3f5cbe56b47212c8f2c8928c78e37f502e5bdc9d860208601526000608086018661019a87357f298ab1f7b8dfddd7b45b1b15734817c3c171700e8118c6f4865bf35d732112907f1b5ee357ddf1ab58fc5ec95a0c75411a80238e9afc18ae1a5c9cf18cf6c3d33b84610092565b6101ea60208801357f02d57112f375abdab6b7ff75a24c23e989a109ba94c082ec76baff2030caf5377f02e0af2b9af0c1b50cd84cb8de902a8d57669898bd27690e50a516958e5c2da584610092565b61023a60408801357f21af9feae20eea52d96e0c420c69787ce901cfb7d95d4ef49e5e36d5232dc2c37f2b90c81f403f80a450fc6375ae9382f6b42f3d6310efe42a297d8b41ef53e1a884610092565b50823581527f30644e72e131a029b85045b68181585d97816a916871ca8d3c208c16d87cfd4760208401357f30644e72e131a029b85045b68181585d97816a916871ca8d3c208c16d87cfd4703066020820152833560408201526020840135606082015260408401356080820152606084013560a08201527f2d4d9aa7e302d9df41749d5507949d05dbea33fbb16c643b22f599a2be6df2e260c08201527f14bedd503c37ceb061d8ec60209fe345ce89830a19230301f076caff004d192660e08201527f0967032fcbf776d1afc985f88877f182d38480a653f2decaa9794cbc3bf3060c6101008201527f0e187847ad4c798374d0d6732bf501847dd68bc0e071241e0213bc7fc13db7ab6101208201527f304cfbd1e08a704a99f5e847d93f8c3caafddec46b7a0d379da69a4d112346a76101408201527f1739c1b1a457a8c7313123d24d2f9192f896b7c63eea05a9d57f06547ad0cec8610160820152600087015161018082015260206000018701516101a08201527f198e9393920d483a7260bfb731fb5d25f1aa493335a9e71297e485b7aef312c26101c08201527f1800deef121f1e76426a00665e5c4479674322d4f75edadd46debd5cd992f6ed6101e08201527f090689d0585ff075ec9e99ad690c3395bc4b313370b38ef355acdadcd122975b6102008201527f12c85ea5db8c6deb4aab71808dcb408fe3d1e7690c43d37b4ce6cc0166fa7daa610220820152843561024082015260208501356102608201527f099473bd051cc09419493e985fdc54358e55aa2551e6597fd08d719e1ef352e26102808201527ea079a37f3707366665fca70533c74cecef8ca4f04ed67ec0ae7f267cc4f37c6102a08201527f25146d67551dacaa34d302018e7737caef2cdc75779d4b7ec6993257aefdc1986102c08201527f11974ceab3cba8ad81356814f187892db45e820408de1a31e59bf6ab05d963646102e08201526020816103008360086107d05a03fa9051169695505050505050565b6040516103808101604052610531600084013561005e565b61053e602084013561005e565b61054b604084013561005e565b610558606084013561005e565b610565818486888a6100fd565b90508060005260206000f35b806040810183101561058257600080fd5b92915050565b6000806000806101608086880312156105a057600080fd5b6105aa8787610571565b945060c08601878111156105bd57600080fd5b6040870194506105cd8882610571565b9350508681870111156105df57600080fd5b5092959194509261010001915056fea2646970667358221220042f2a662859f90892c82629df960f301b5c89de565fa2841924e98b4a5f4dc664736f6c63430008130033","linkReferences":{}},"methodIdentifiers":{"acceptOwnership()":"79ba5097","ccipReceive((bytes32,uint64,bytes,bytes,(address,uint256)[]))":"85572ffb","denylistChain(uint64)":"34625dcc","getRouter()":"b0f479a1","messageStack(bytes32)":"8d343465","owner()":"8da5cb5b","provideCircomPubkey(address,uint64)":"592e7a33","requestSupplyProof(address,uint64,bytes)":"a01d2f13","setCircomPubkey(uint256,uint256)":"99942b96","setEthPubkey(bytes32)":"bb0be801","supportsInterface(bytes4)":"01ffc9a7","transferOwnership(address)":"f2fde38b","verifyProof(bytes)":"55c265fe","whitelistChain(uint64)":"d345ac7d","whitelistedChains(uint64)":"763574f6","withdraw(address)":"51cff8d9","withdrawToken(address,address)":"3aeac4e1"},"id":35}