{"abi":[{"type":"constructor","inputs":[{"name":"_router","type":"address","internalType":"address"},{"name":"_link","type":"address","internalType":"address"}],"stateMutability":"nonpayable"},{"type":"function","name":"acceptOwnership","inputs":[],"outputs":[],"stateMutability":"nonpayable"},{"type":"function","name":"ccipReceive","inputs":[{"name":"message","type":"tuple","internalType":"struct Client.Any2EVMMessage","components":[{"name":"messageId","type":"bytes32","internalType":"bytes32"},{"name":"sourceChainSelector","type":"uint64","internalType":"uint64"},{"name":"sender","type":"bytes","internalType":"bytes"},{"name":"data","type":"bytes","internalType":"bytes"},{"name":"destTokenAmounts","type":"tuple[]","internalType":"struct Client.EVMTokenAmount[]","components":[{"name":"token","type":"address","internalType":"address"},{"name":"amount","type":"uint256","internalType":"uint256"}]}]}],"outputs":[],"stateMutability":"nonpayable"},{"type":"function","name":"denylistChain","inputs":[{"name":"_destinationChainSelector","type":"uint64","internalType":"uint64"}],"outputs":[],"stateMutability":"nonpayable"},{"type":"function","name":"getRouter","inputs":[],"outputs":[{"name":"","type":"address","internalType":"address"}],"stateMutability":"view"},{"type":"function","name":"messageStack","inputs":[{"name":"","type":"bytes32","internalType":"bytes32"}],"outputs":[{"name":"operation","type":"uint8","internalType":"enum TradeEntity.OperationType"},{"name":"circomPubkey","type":"tuple","internalType":"struct TradeEntity.CircomPubkey","components":[{"name":"Ax","type":"uint256","internalType":"uint256"},{"name":"Ay","type":"uint256","internalType":"uint256"}]},{"name":"ethPubkey","type":"tuple","internalType":"struct TradeEntity.EthPubkey","components":[{"name":"value","type":"bytes32","internalType":"bytes32"}]},{"name":"encryptedRequest","type":"bytes","internalType":"bytes"},{"name":"message","type":"string","internalType":"string"},{"name":"proof","type":"bytes","internalType":"bytes"}],"stateMutability":"view"},{"type":"function","name":"owner","inputs":[],"outputs":[{"name":"","type":"address","internalType":"address"}],"stateMutability":"view"},{"type":"function","name":"provideCircomPubkey","inputs":[{"name":"sellerAddress","type":"address","internalType":"address"},{"name":"sellerChainId","type":"uint64","internalType":"uint64"}],"outputs":[{"name":"messageId","type":"bytes32","internalType":"bytes32"}],"stateMutability":"nonpayable"},{"type":"function","name":"requestSupplyProof","inputs":[{"name":"sellerAddress","type":"address","internalType":"address"},{"name":"sellerChainId","type":"uint64","internalType":"uint64"},{"name":"encryptedMessage","type":"bytes","internalType":"bytes"}],"outputs":[{"name":"messageId","type":"bytes32","internalType":"bytes32"}],"stateMutability":"nonpayable"},{"type":"function","name":"setCircomPubkey","inputs":[{"name":"Ax","type":"uint256","internalType":"uint256"},{"name":"Ay","type":"uint256","internalType":"uint256"}],"outputs":[],"stateMutability":"nonpayable"},{"type":"function","name":"setEthPubkey","inputs":[{"name":"_ethPubkeyValue","type":"bytes32","internalType":"bytes32"}],"outputs":[],"stateMutability":"nonpayable"},{"type":"function","name":"supportsInterface","inputs":[{"name":"interfaceId","type":"bytes4","internalType":"bytes4"}],"outputs":[{"name":"","type":"bool","internalType":"bool"}],"stateMutability":"pure"},{"type":"function","name":"transferOwnership","inputs":[{"name":"to","type":"address","internalType":"address"}],"outputs":[],"stateMutability":"nonpayable"},{"type":"function","name":"whitelistChain","inputs":[{"name":"_destinationChainSelector","type":"uint64","internalType":"uint64"}],"outputs":[],"stateMutability":"nonpayable"},{"type":"function","name":"whitelistedChains","inputs":[{"name":"","type":"uint64","internalType":"uint64"}],"outputs":[{"name":"","type":"bool","internalType":"bool"}],"stateMutability":"view"},{"type":"function","name":"withdraw","inputs":[{"name":"_beneficiary","type":"address","internalType":"address"}],"outputs":[],"stateMutability":"nonpayable"},{"type":"function","name":"withdrawToken","inputs":[{"name":"_beneficiary","type":"address","internalType":"address"},{"name":"_token","type":"address","internalType":"address"}],"outputs":[],"stateMutability":"nonpayable"},{"type":"event","name":"MessageReceived","inputs":[{"name":"messageId","type":"bytes32","indexed":true,"internalType":"bytes32"},{"name":"sourceChainSelector","type":"uint64","indexed":true,"internalType":"uint64"},{"name":"sender","type":"address","indexed":false,"internalType":"address"},{"name":"operation","type":"uint8","indexed":false,"internalType":"enum TradeEntity.OperationType"},{"name":"text","type":"string","indexed":false,"internalType":"string"}],"anonymous":false},{"type":"event","name":"MessageSent","inputs":[{"name":"receiver","type":"address","indexed":false,"internalType":"address"},{"name":"operation","type":"uint8","indexed":false,"internalType":"enum TradeEntity.OperationType"},{"name":"text","type":"string","indexed":false,"internalType":"string"}],"anonymous":false},{"type":"event","name":"OwnershipTransferRequested","inputs":[{"name":"from","type":"address","indexed":true,"internalType":"address"},{"name":"to","type":"address","indexed":true,"internalType":"address"}],"anonymous":false},{"type":"event","name":"OwnershipTransferred","inputs":[{"name":"from","type":"address","indexed":true,"internalType":"address"},{"name":"to","type":"address","indexed":true,"internalType":"address"}],"anonymous":false},{"type":"error","name":"DestinationChainNotAllowlisted","inputs":[{"name":"destinationChainSelector","type":"uint64","internalType":"uint64"}]},{"type":"error","name":"DestinationChainNotWhitelisted","inputs":[{"name":"destinationChainSelector","type":"uint64","internalType":"uint64"}]},{"type":"error","name":"FailedToWithdrawEth","inputs":[{"name":"owner","type":"address","internalType":"address"},{"name":"target","type":"address","internalType":"address"},{"name":"value","type":"uint256","internalType":"uint256"}]},{"type":"error","name":"InvalidRouter","inputs":[{"name":"router","type":"address","internalType":"address"}]},{"type":"error","name":"NotEnoughBalance","inputs":[{"name":"currentBalance","type":"uint256","internalType":"uint256"},{"name":"calculatedFees","type":"uint256","internalType":"uint256"}]},{"type":"error","name":"NothingToWithdraw","inputs":[]},{"type":"error","name":"SenderNotAllowlisted","inputs":[{"name":"sender","type":"address","internalType":"address"}]},{"type":"error","name":"SourceChainNotAllowlisted","inputs":[{"name":"sourceChainSelector","type":"uint64","internalType":"uint64"}]},{"type":"error","name":"UnknownOperation","inputs":[]}],"bytecode":{"object":"0x60a06040523480156200001157600080fd5b50604051620024a1380380620024a183398101604081905262000034916200029e565b81818133806000816200008e5760405162461bcd60e51b815260206004820152601860248201527f43616e6e6f7420736574206f776e657220746f207a65726f000000000000000060448201526064015b60405180910390fd5b600080546001600160a01b0319166001600160a01b0384811691909117909155811615620000c157620000c181620001c8565b5050506001600160a01b038116620000f0576040516335fdcccd60e21b81526000600482015260240162000085565b6001600160a01b03908116608052600380546001600160a01b03199081168584161790915560028054909116918316919091179055604051620001339062000273565b604051809103906000f08015801562000150573d6000803e3d6000fd5b50600980546001600160a01b0319166001600160a01b03929092169190911790555050604051620001819062000273565b604051809103906000f0801580156200019e573d6000803e3d6000fd5b50600980546001600160a01b0319166001600160a01b039290921691909117905550620002d69050565b336001600160a01b03821603620002225760405162461bcd60e51b815260206004820152601760248201527f43616e6e6f74207472616e7366657220746f2073656c66000000000000000000604482015260640162000085565b600180546001600160a01b0319166001600160a01b0383811691821790925560008054604051929316917fed8889f560326eb138920d842192f0eb3dd22b4f139c87a2c57538e05bae12789190a350565b6106458062001e5c83390190565b80516001600160a01b03811681146200029957600080fd5b919050565b60008060408385031215620002b257600080fd5b620002bd8362000281565b9150620002cd6020840162000281565b90509250929050565b608051611b63620002f96000396000818161023901526106580152611b636000f3fe608060405234801561001057600080fd5b50600436106101005760003560e01c80638d34346511610097578063b0f479a111610066578063b0f479a114610237578063bb0be8011461025d578063d345ac7d14610270578063f2fde38b1461028357600080fd5b80638d343465146101c75780638da5cb5b146101ec57806399942b9614610211578063a01d2f131461022457600080fd5b8063592e7a33116100d3578063592e7a3314610168578063763574f61461018957806379ba5097146101ac57806385572ffb146101b457600080fd5b806301ffc9a71461010557806334625dcc1461012d5780633aeac4e11461014257806351cff8d914610155575b600080fd5b6101186101133660046110b1565b610296565b60405190151581526020015b60405180910390f35b61014061013b3660046110fe565b6102cd565b005b61014061015036600461112e565b6102f6565b610140610163366004611167565b610405565b61017b610176366004611184565b6104c6565b604051908152602001610124565b6101186101973660046110fe565b600a6020526000908152604090205460ff1681565b6101406105a3565b6101406101c23660046111b9565b61064d565b6101da6101d53660046111f3565b6106ac565b60405161012496959493929190611294565b6000546001600160a01b03165b6040516001600160a01b039091168152602001610124565b61014061021f366004611305565b61089d565b61017b610232366004611327565b6108c3565b7f00000000000000000000000000000000000000000000000000000000000000006101f9565b61014061026b3660046111f3565b6109d2565b61014061027e3660046110fe565b6109ed565b610140610291366004611167565b610a19565b60006001600160e01b031982166385572ffb60e01b14806102c757506001600160e01b031982166301ffc9a760e01b145b92915050565b6102d5610a2a565b6001600160401b03166000908152600a60205260409020805460ff19169055565b6102fe610a2a565b6040516370a0823160e01b81523060048201526000906001600160a01b038316906370a0823190602401602060405180830381865afa158015610345573d6000803e3d6000fd5b505050506040513d601f19601f8201168201806040525081019061036991906113b6565b90508060000361038c57604051630686827b60e51b815260040160405180910390fd5b60405163a9059cbb60e01b81526001600160a01b0384811660048301526024820183905283169063a9059cbb906044016020604051808303816000875af11580156103db573d6000803e3d6000fd5b505050506040513d601f19601f820116820180604052508101906103ff91906113cf565b50505050565b61040d610a2a565b47600081900361043057604051630686827b60e51b815260040160405180910390fd5b6000826001600160a01b03168260405160006040518083038185875af1925050503d806000811461047d576040519150601f19603f3d011682016040523d82523d6000602084013e610482565b606091505b50509050806104c157604051639d11f56360e01b81523360048201526001600160a01b0384166024820152604481018390526064015b60405180910390fd5b505050565b6001600160401b0381166000908152600a6020526040812054829060ff1661050c57604051632328ea8d60e11b81526001600160401b03821660048201526024016104b8565b61059b84846040518060c001604052806001600481111561052f5761052f61120c565b8152604080518082018252600454815260055460208281019190915280840191909152815180820183526006548152828401528151808201835260008082526060850191909152825180830184528181526080850152825191820190925290815260a090910152610a7f565b949350505050565b6001546001600160a01b031633146105f65760405162461bcd60e51b815260206004820152601660248201527526bab9ba10313290383937b837b9b2b21037bbb732b960511b60448201526064016104b8565b60008054336001600160a01b0319808316821784556001805490911690556040516001600160a01b0390921692909183917f8be0079c531659141344cd1fd0a4f28419497f9722a3daafe3b4186f6b6457e091a350565b336001600160a01b037f00000000000000000000000000000000000000000000000000000000000000001614610698576040516335fdcccd60e21b81523360048201526024016104b8565b6106a96106a4826115cc565b610e94565b50565b6008602090815260009182526040918290208054835180850185526001830154815260028301548185015284519384019094526003820154835260048201805460ff909216949392916106fe90611678565b80601f016020809104026020016040519081016040528092919081815260200182805461072a90611678565b80156107775780601f1061074c57610100808354040283529160200191610777565b820191906000526020600020905b81548152906001019060200180831161075a57829003601f168201915b50505050509080600501805461078c90611678565b80601f01602080910402602001604051908101604052809291908181526020018280546107b890611678565b80156108055780601f106107da57610100808354040283529160200191610805565b820191906000526020600020905b8154815290600101906020018083116107e857829003601f168201915b50505050509080600601805461081a90611678565b80601f016020809104026020016040519081016040528092919081815260200182805461084690611678565b80156108935780601f1061086857610100808354040283529160200191610893565b820191906000526020600020905b81548152906001019060200180831161087657829003601f168201915b5050505050905086565b6108a5610a2a565b60408051808201909152828152602001819052600491909155600555565b60006108cd610a2a565b6001600160401b0384166000908152600a6020526040902054849060ff1661091357604051632328ea8d60e11b81526001600160401b03821660048201526024016104b8565b6109c886866040518060c00160405280600360048111156109365761093661120c565b8152604080518082018252600454815260055460208281019190915280840191909152815180820183526006548152828401528151601f8b018290048202810182019092528982526060909201918a908a908190840183828082843760009201829052509385525050604080516020818101835284825280860191909152815190810182529283529092015250610a7f565b9695505050505050565b6109da610a2a565b6040805160208101909152819052600655565b6109f5610a2a565b6001600160401b03166000908152600a60205260409020805460ff19166001179055565b610a21610a2a565b6106a981611008565b6000546001600160a01b03163314610a7d5760405162461bcd60e51b815260206004820152601660248201527527b7363c9031b0b63630b1363290313c9037bbb732b960511b60448201526064016104b8565b565b6040805160a081019091526001600160a01b03841660c082015260009081908060e08101604051602081830303815290604052815260200184604051602001610ac891906116b2565b60408051601f1981840301815291905281526020016000604051908082528060200260200182016040528015610b2457816020015b6040805180820190915260008082526020820152815260200190600190039081610afd5790505b5081526002546001600160a01b0390811660208084019190915260408051918201815260008083529381019190915260035490516320487ded60e01b815293945091929116906320487ded90610b80908890869060040161174d565b602060405180830381865afa158015610b9d573d6000803e3d6000fd5b505050506040513d601f19601f82011682018060405250810190610bc191906113b6565b6002546040516370a0823160e01b81523060048201529192506001600160a01b0316906370a0823190602401602060405180830381865afa158015610c0a573d6000803e3d6000fd5b505050506040513d601f19601f82011682018060405250810190610c2e91906113b6565b811115610cc5576002546040516370a0823160e01b81523060048201526001600160a01b03909116906370a0823190602401602060405180830381865afa158015610c7d573d6000803e3d6000fd5b505050506040513d601f19601f82011682018060405250810190610ca191906113b6565b604051634787a10360e11b81526004810191909152602481018290526044016104b8565b60025460035460405163095ea7b360e01b81526001600160a01b0391821660048201526024810184905291169063095ea7b3906044016020604051808303816000875af1158015610d1a573d6000803e3d6000fd5b505050506040513d601f19601f82011682018060405250810190610d3e91906113cf565b506003546040516396f4e9f960e01b81526001600160a01b03909116906396f4e9f990610d71908890869060040161174d565b6020604051808303816000875af1158015610d90573d6000803e3d6000fd5b505050506040513d601f19601f82011682018060405250810190610db491906113b6565b6000818152600860205260409020855181549295508692829060ff19166001836004811115610de557610de561120c565b02179055506020828101518051600184015501516002820155604082015151600382015560608201516004820190610e1d9082611874565b5060808201516005820190610e329082611874565b5060a08201516006820190610e479082611874565b5050845160808601516040517fbd1f1022102dd0f6eaefd3c92f46366d546448ab8807673ec2bc185dd73d6bfc9350610e83928a929091611933565b60405180910390a150509392505050565b6020808201516001600160401b0381166000908152600a90925260409091205460ff16610edf57604051632328ea8d60e11b81526001600160401b03821660048201526024016104b8565b815160075560608201518051600091610f0091810160209081019101611a27565b83516000908152600860205260409020815181549293508392829060ff19166001836004811115610f3357610f3361120c565b02179055506020828101518051600184015501516002820155604082015151600382015560608201516004820190610f6b9082611874565b5060808201516005820190610f809082611874565b5060a08201516006820190610f959082611874565b5090505082602001516001600160401b031683600001517f4e3534816d92b985a6dbde0bbcb13c3fc3d0df4d8e5a4383075085127487354a8560400151806020019051810190610fe59190611b10565b84516080860151604051610ffb93929190611933565b60405180910390a3505050565b336001600160a01b038216036110605760405162461bcd60e51b815260206004820152601760248201527f43616e6e6f74207472616e7366657220746f2073656c6600000000000000000060448201526064016104b8565b600180546001600160a01b0319166001600160a01b0383811691821790925560008054604051929316917fed8889f560326eb138920d842192f0eb3dd22b4f139c87a2c57538e05bae12789190a350565b6000602082840312156110c357600080fd5b81356001600160e01b0319811681146110db57600080fd5b9392505050565b80356001600160401b03811681146110f957600080fd5b919050565b60006020828403121561111057600080fd5b6110db826110e2565b6001600160a01b03811681146106a957600080fd5b6000806040838503121561114157600080fd5b823561114c81611119565b9150602083013561115c81611119565b809150509250929050565b60006020828403121561117957600080fd5b81356110db81611119565b6000806040838503121561119757600080fd5b82356111a281611119565b91506111b0602084016110e2565b90509250929050565b6000602082840312156111cb57600080fd5b81356001600160401b038111156111e157600080fd5b820160a081850312156110db57600080fd5b60006020828403121561120557600080fd5b5035919050565b634e487b7160e01b600052602160045260246000fd5b6005811061124057634e487b7160e01b600052602160045260246000fd5b9052565b60005b8381101561125f578181015183820152602001611247565b50506000910152565b60008151808452611280816020860160208601611244565b601f01601f19169290920160200192915050565b61129e8188611222565b6112b5602082018780518252602090810151910152565b8451606082015260e0608082015260006112d260e0830186611268565b82810360a08401526112e48186611268565b905082810360c08401526112f88185611268565b9998505050505050505050565b6000806040838503121561131857600080fd5b50508035926020909101359150565b6000806000806060858703121561133d57600080fd5b843561134881611119565b9350611356602086016110e2565b925060408501356001600160401b038082111561137257600080fd5b818701915087601f83011261138657600080fd5b81358181111561139557600080fd5b8860208285010111156113a757600080fd5b95989497505060200194505050565b6000602082840312156113c857600080fd5b5051919050565b6000602082840312156113e157600080fd5b815180151581146110db57600080fd5b634e487b7160e01b600052604160045260246000fd5b604080519081016001600160401b0381118282101715611429576114296113f1565b60405290565b60405160a081016001600160401b0381118282101715611429576114296113f1565b60405160c081016001600160401b0381118282101715611429576114296113f1565b604051601f8201601f191681016001600160401b038111828210171561149b5761149b6113f1565b604052919050565b60006001600160401b038211156114bc576114bc6113f1565b50601f01601f191660200190565b600082601f8301126114db57600080fd5b81356114ee6114e9826114a3565b611473565b81815284602083860101111561150357600080fd5b816020850160208301376000918101602001919091529392505050565b600082601f83011261153157600080fd5b813560206001600160401b0382111561154c5761154c6113f1565b61155a818360051b01611473565b82815260069290921b8401810191818101908684111561157957600080fd5b8286015b848110156115c157604081890312156115965760008081fd5b61159e611407565b81356115a981611119565b8152818501358582015283529183019160400161157d565b509695505050505050565b600060a082360312156115de57600080fd5b6115e661142f565b823581526115f6602084016110e2565b602082015260408301356001600160401b038082111561161557600080fd5b611621368387016114ca565b6040840152606085013591508082111561163a57600080fd5b611646368387016114ca565b6060840152608085013591508082111561165f57600080fd5b5061166c36828601611520565b60808301525092915050565b600181811c9082168061168c57607f821691505b6020821081036116ac57634e487b7160e01b600052602260045260246000fd5b50919050565b602081526116c4602082018351611222565b600060208301516116e2604084018280518252602090810151910152565b506040830151516080830152606083015160e060a0840152611708610100840182611268565b90506080840151601f19808584030160c08601526117268383611268565b925060a08601519150808584030160e0860152506117448282611268565b95945050505050565b600060406001600160401b038516835260208181850152845160a08386015261177960e0860182611268565b905081860151603f19808784030160608801526117968383611268565b88860151888203830160808a01528051808352908601945060009350908501905b808410156117e957845180516001600160a01b03168352860151868301529385019360019390930192908601906117b7565b5060608901516001600160a01b031660a08901526080890151888203830160c08a015295506118188187611268565b9a9950505050505050505050565b601f8211156104c157600081815260208120601f850160051c8101602086101561184d5750805b601f850160051c820191505b8181101561186c57828155600101611859565b505050505050565b81516001600160401b0381111561188d5761188d6113f1565b6118a18161189b8454611678565b84611826565b602080601f8311600181146118d657600084156118be5750858301515b600019600386901b1c1916600185901b17855561186c565b600085815260208120601f198616915b82811015611905578886015182559484019460019091019084016118e6565b50858210156119235787850151600019600388901b60f8161c191681555b5050505050600190811b01905550565b6001600160a01b038416815261194c6020820184611222565b6060604082015260006117446060830184611268565b8051600581106110f957600080fd5b60006040828403121561198357600080fd5b61198b611407565b9050815181526020820151602082015292915050565b6000602082840312156119b357600080fd5b604051602081018181106001600160401b03821117156119d5576119d56113f1565b6040529151825250919050565b600082601f8301126119f357600080fd5b8151611a016114e9826114a3565b818152846020838601011115611a1657600080fd5b61059b826020830160208701611244565b600060208284031215611a3957600080fd5b81516001600160401b0380821115611a5057600080fd5b9083019060e08286031215611a6457600080fd5b611a6c611451565b611a7583611962565b8152611a848660208501611971565b6020820152611a9686606085016119a1565b6040820152608083015182811115611aad57600080fd5b611ab9878286016119e2565b60608301525060a083015182811115611ad157600080fd5b611add878286016119e2565b60808301525060c083015182811115611af557600080fd5b611b01878286016119e2565b60a08301525095945050505050565b600060208284031215611b2257600080fd5b81516110db8161111956fea264697066735822122081f500ed4b29b18a7ba8a1244a66265baf14beed1bc210b71a78ad1834893ac764736f6c63430008130033608060405234801561001057600080fd5b50610625806100206000396000f3fe608060405234801561001057600080fd5b506004361061002b5760003560e01c806311479fea14610030575b600080fd5b61004361003e366004610589565b610057565b604051901515815260200160405180910390f35b600061051a565b7f30644e72e131a029b85045b68181585d97816a916871ca8d3c208c16d87cfd47811061008f576000805260206000f35b50565b600060405183815284602082015285604082015260408160608360076107d05a03fa9150816100c5576000805260206000f35b825160408201526020830151606082015260408360808360066107d05a03fa915050806100f6576000805260206000f35b5050505050565b7f1625a098b02b4ca3240adb3446000022c88a56c95a52c95ce9f2b8f43205184885527f29d01786cb891c52ea933ad3f5cbe56b47212c8f2c8928c78e37f502e5bdc9d860208601526000608086018661019a87357f298ab1f7b8dfddd7b45b1b15734817c3c171700e8118c6f4865bf35d732112907f1b5ee357ddf1ab58fc5ec95a0c75411a80238e9afc18ae1a5c9cf18cf6c3d33b84610092565b6101ea60208801357f02d57112f375abdab6b7ff75a24c23e989a109ba94c082ec76baff2030caf5377f02e0af2b9af0c1b50cd84cb8de902a8d57669898bd27690e50a516958e5c2da584610092565b61023a60408801357f21af9feae20eea52d96e0c420c69787ce901cfb7d95d4ef49e5e36d5232dc2c37f2b90c81f403f80a450fc6375ae9382f6b42f3d6310efe42a297d8b41ef53e1a884610092565b50823581527f30644e72e131a029b85045b68181585d97816a916871ca8d3c208c16d87cfd4760208401357f30644e72e131a029b85045b68181585d97816a916871ca8d3c208c16d87cfd4703066020820152833560408201526020840135606082015260408401356080820152606084013560a08201527f2d4d9aa7e302d9df41749d5507949d05dbea33fbb16c643b22f599a2be6df2e260c08201527f14bedd503c37ceb061d8ec60209fe345ce89830a19230301f076caff004d192660e08201527f0967032fcbf776d1afc985f88877f182d38480a653f2decaa9794cbc3bf3060c6101008201527f0e187847ad4c798374d0d6732bf501847dd68bc0e071241e0213bc7fc13db7ab6101208201527f304cfbd1e08a704a99f5e847d93f8c3caafddec46b7a0d379da69a4d112346a76101408201527f1739c1b1a457a8c7313123d24d2f9192f896b7c63eea05a9d57f06547ad0cec8610160820152600087015161018082015260206000018701516101a08201527f198e9393920d483a7260bfb731fb5d25f1aa493335a9e71297e485b7aef312c26101c08201527f1800deef121f1e76426a00665e5c4479674322d4f75edadd46debd5cd992f6ed6101e08201527f090689d0585ff075ec9e99ad690c3395bc4b313370b38ef355acdadcd122975b6102008201527f12c85ea5db8c6deb4aab71808dcb408fe3d1e7690c43d37b4ce6cc0166fa7daa610220820152843561024082015260208501356102608201527f029f8a110b366d15ff04f88382523cfe980e3be715712e6f5ca8914b7ae70bb86102808201527f0c2983a7c354edec58b669c1b848d56ac89a4a6e24d237c183505dc22990ded76102a08201527f06351c92e9eca0e0596a9ab43dad83099ff0a56b4f6667f7c660d972d543546a6102c08201527f196f8a0c9b49034cc53d34a2e614b909736811c18c234027cf73897eda4e746e6102e08201526020816103008360086107d05a03fa9051169695505050505050565b6040516103808101604052610532600084013561005e565b61053f602084013561005e565b61054c604084013561005e565b610559606084013561005e565b610566818486888a6100fd565b90508060005260206000f35b806040810183101561058357600080fd5b92915050565b6000806000806101608086880312156105a157600080fd5b6105ab8787610572565b945060c08601878111156105be57600080fd5b6040870194506105ce8882610572565b9350508681870111156105e057600080fd5b5092959194509261010001915056fea2646970667358221220a04d5d10c8ac4ed86e0160a49c7ae9c1c098ef6007827c31c67f4d0360f90fe764736f6c63430008130033","linkReferences":{}},"methodIdentifiers":{"acceptOwnership()":"79ba5097","ccipReceive((bytes32,uint64,bytes,bytes,(address,uint256)[]))":"85572ffb","denylistChain(uint64)":"34625dcc","getRouter()":"b0f479a1","messageStack(bytes32)":"8d343465","owner()":"8da5cb5b","provideCircomPubkey(address,uint64)":"592e7a33","requestSupplyProof(address,uint64,bytes)":"a01d2f13","setCircomPubkey(uint256,uint256)":"99942b96","setEthPubkey(bytes32)":"bb0be801","supportsInterface(bytes4)":"01ffc9a7","transferOwnership(address)":"f2fde38b","whitelistChain(uint64)":"d345ac7d","whitelistedChains(uint64)":"763574f6","withdraw(address)":"51cff8d9","withdrawToken(address,address)":"3aeac4e1"},"id":30}