{"abi":[{"type":"constructor","inputs":[{"name":"_router","type":"address","internalType":"address"},{"name":"_link","type":"address","internalType":"address"},{"name":"_ethPubkeyValue","type":"bytes32","internalType":"bytes32"}],"stateMutability":"nonpayable"},{"type":"function","name":"acceptOwnership","inputs":[],"outputs":[],"stateMutability":"nonpayable"},{"type":"function","name":"ccipReceive","inputs":[{"name":"message","type":"tuple","internalType":"struct Client.Any2EVMMessage","components":[{"name":"messageId","type":"bytes32","internalType":"bytes32"},{"name":"sourceChainSelector","type":"uint64","internalType":"uint64"},{"name":"sender","type":"bytes","internalType":"bytes"},{"name":"data","type":"bytes","internalType":"bytes"},{"name":"destTokenAmounts","type":"tuple[]","internalType":"struct Client.EVMTokenAmount[]","components":[{"name":"token","type":"address","internalType":"address"},{"name":"amount","type":"uint256","internalType":"uint256"}]}]}],"outputs":[],"stateMutability":"nonpayable"},{"type":"function","name":"denylistChain","inputs":[{"name":"_destinationChainSelector","type":"uint64","internalType":"uint64"}],"outputs":[],"stateMutability":"nonpayable"},{"type":"function","name":"getRouter","inputs":[],"outputs":[{"name":"","type":"address","internalType":"address"}],"stateMutability":"view"},{"type":"function","name":"getSupplyProofRequestMessage","inputs":[],"outputs":[{"name":"","type":"tuple","internalType":"struct Seller.TradeMessage","components":[{"name":"operation","type":"uint8","internalType":"enum Seller.OperationType"},{"name":"circomPubkey","type":"tuple","internalType":"struct Seller.CircomPubkey","components":[{"name":"Ax","type":"uint256","internalType":"uint256"},{"name":"Ay","type":"uint256","internalType":"uint256"}]},{"name":"ethPubkey","type":"tuple","internalType":"struct Seller.EthPubkey","components":[{"name":"value","type":"bytes32","internalType":"bytes32"}]},{"name":"encryptedRequest","type":"bytes","internalType":"bytes"},{"name":"message","type":"string","internalType":"string"},{"name":"proof","type":"bytes","internalType":"bytes"}]}],"stateMutability":"view"},{"type":"function","name":"isSupplyProofRequested","inputs":[],"outputs":[{"name":"","type":"bool","internalType":"bool"}],"stateMutability":"view"},{"type":"function","name":"messageStack","inputs":[{"name":"","type":"bytes32","internalType":"bytes32"}],"outputs":[{"name":"operation","type":"uint8","internalType":"enum Seller.OperationType"},{"name":"circomPubkey","type":"tuple","internalType":"struct Seller.CircomPubkey","components":[{"name":"Ax","type":"uint256","internalType":"uint256"},{"name":"Ay","type":"uint256","internalType":"uint256"}]},{"name":"ethPubkey","type":"tuple","internalType":"struct Seller.EthPubkey","components":[{"name":"value","type":"bytes32","internalType":"bytes32"}]},{"name":"encryptedRequest","type":"bytes","internalType":"bytes"},{"name":"message","type":"string","internalType":"string"},{"name":"proof","type":"bytes","internalType":"bytes"}],"stateMutability":"view"},{"type":"function","name":"owner","inputs":[],"outputs":[{"name":"","type":"address","internalType":"address"}],"stateMutability":"view"},{"type":"function","name":"provideEthPubkey","inputs":[{"name":"buyerAddress","type":"address","internalType":"address"},{"name":"buyerChainId","type":"uint64","internalType":"uint64"}],"outputs":[{"name":"messageId","type":"bytes32","internalType":"bytes32"}],"stateMutability":"nonpayable"},{"type":"function","name":"provideSupplyProof","inputs":[{"name":"buyerAddress","type":"address","internalType":"address"},{"name":"buyerChainId","type":"uint64","internalType":"uint64"},{"name":"proof","type":"bytes","internalType":"bytes"}],"outputs":[{"name":"messageId","type":"bytes32","internalType":"bytes32"}],"stateMutability":"nonpayable"},{"type":"function","name":"supportsInterface","inputs":[{"name":"interfaceId","type":"bytes4","internalType":"bytes4"}],"outputs":[{"name":"","type":"bool","internalType":"bool"}],"stateMutability":"pure"},{"type":"function","name":"transferOwnership","inputs":[{"name":"to","type":"address","internalType":"address"}],"outputs":[],"stateMutability":"nonpayable"},{"type":"function","name":"whitelistChain","inputs":[{"name":"_destinationChainSelector","type":"uint64","internalType":"uint64"}],"outputs":[],"stateMutability":"nonpayable"},{"type":"function","name":"whitelistedChains","inputs":[{"name":"","type":"uint64","internalType":"uint64"}],"outputs":[{"name":"","type":"bool","internalType":"bool"}],"stateMutability":"view"},{"type":"function","name":"withdraw","inputs":[{"name":"_beneficiary","type":"address","internalType":"address"}],"outputs":[],"stateMutability":"nonpayable"},{"type":"function","name":"withdrawToken","inputs":[{"name":"_beneficiary","type":"address","internalType":"address"},{"name":"_token","type":"address","internalType":"address"}],"outputs":[],"stateMutability":"nonpayable"},{"type":"event","name":"MessageReceived","inputs":[{"name":"messageId","type":"bytes32","indexed":true,"internalType":"bytes32"},{"name":"sourceChainSelector","type":"uint64","indexed":true,"internalType":"uint64"},{"name":"sender","type":"address","indexed":false,"internalType":"address"},{"name":"operation","type":"uint8","indexed":false,"internalType":"enum Seller.OperationType"},{"name":"text","type":"string","indexed":false,"internalType":"string"}],"anonymous":false},{"type":"event","name":"MessageSent","inputs":[{"name":"receiver","type":"address","indexed":false,"internalType":"address"},{"name":"operation","type":"uint8","indexed":false,"internalType":"enum Seller.OperationType"},{"name":"message","type":"string","indexed":false,"internalType":"string"}],"anonymous":false},{"type":"event","name":"OwnershipTransferRequested","inputs":[{"name":"from","type":"address","indexed":true,"internalType":"address"},{"name":"to","type":"address","indexed":true,"internalType":"address"}],"anonymous":false},{"type":"event","name":"OwnershipTransferred","inputs":[{"name":"from","type":"address","indexed":true,"internalType":"address"},{"name":"to","type":"address","indexed":true,"internalType":"address"}],"anonymous":false},{"type":"error","name":"DestinationChainNotAllowlisted","inputs":[{"name":"destinationChainSelector","type":"uint64","internalType":"uint64"}]},{"type":"error","name":"DestinationChainNotWhitelisted","inputs":[{"name":"destinationChainSelector","type":"uint64","internalType":"uint64"}]},{"type":"error","name":"FailedToWithdrawEth","inputs":[{"name":"owner","type":"address","internalType":"address"},{"name":"target","type":"address","internalType":"address"},{"name":"value","type":"uint256","internalType":"uint256"}]},{"type":"error","name":"InvalidRouter","inputs":[{"name":"router","type":"address","internalType":"address"}]},{"type":"error","name":"NoSupplyProofRequested","inputs":[]},{"type":"error","name":"NotEnoughBalance","inputs":[{"name":"currentBalance","type":"uint256","internalType":"uint256"},{"name":"calculatedFees","type":"uint256","internalType":"uint256"}]},{"type":"error","name":"NothingToWithdraw","inputs":[]},{"type":"error","name":"SenderNotAllowlisted","inputs":[{"name":"sender","type":"address","internalType":"address"}]},{"type":"error","name":"SourceChainNotAllowlisted","inputs":[{"name":"sourceChainSelector","type":"uint64","internalType":"uint64"}]},{"type":"error","name":"UnknownOperation","inputs":[]}],"bytecode":{"object":"0x60a06040523480156200001157600080fd5b5060405162001fd838038062001fd8833981016040819052620000349162000273565b8233806000816200008c5760405162461bcd60e51b815260206004820152601860248201527f43616e6e6f7420736574206f776e657220746f207a65726f000000000000000060448201526064015b60405180910390fd5b600080546001600160a01b0319166001600160a01b0384811691909117909155811615620000bf57620000bf81620001ab565b5050506001600160a01b038116620000ee576040516335fdcccd60e21b81526000600482015260240162000083565b6001600160a01b03908116608052600280548483166001600160a01b0319918216811790925560038054938716939091168317905560405163095ea7b360e01b8152600481019290925260001960248301529063095ea7b3906044016020604051808303816000875af11580156200016a573d6000803e3d6000fd5b505050506040513d601f19601f82011682018060405250810190620001909190620002b4565b50604080516020810190915281905260065550620002df9050565b336001600160a01b03821603620002055760405162461bcd60e51b815260206004820152601760248201527f43616e6e6f74207472616e7366657220746f2073656c66000000000000000000604482015260640162000083565b600180546001600160a01b0319166001600160a01b0383811691821790925560008054604051929316917fed8889f560326eb138920d842192f0eb3dd22b4f139c87a2c57538e05bae12789190a350565b80516001600160a01b03811681146200026e57600080fd5b919050565b6000806000606084860312156200028957600080fd5b620002948462000256565b9250620002a46020850162000256565b9150604084015190509250925092565b600060208284031215620002c757600080fd5b81518015158114620002d857600080fd5b9392505050565b608051611cd6620003026000396000818161023501526108810152611cd66000f3fe608060405234801561001057600080fd5b50600436106101005760003560e01c806379ba509711610097578063b0f479a111610066578063b0f479a114610233578063d345ac7d14610259578063f2fde38b1461026c578063f8ec3ced1461027f57600080fd5b806379ba5097146101ce57806385572ffb146101d65780638d343465146101e95780638da5cb5b1461020e57600080fd5b80633aeac4e1116100d35780633aeac4e1146101785780634d0fdf831461018b57806351cff8d914610198578063763574f6146101ab57600080fd5b806301ffc9a7146101055780630d74c4561461012d57806330fcc3661461014257806334625dcc14610163575b600080fd5b61011861011336600461127d565b610292565b60405190151581526020015b60405180910390f35b6101356102c9565b604051610124919061132f565b6101556101503660046113fb565b61053b565b604051908152602001610124565b610176610171366004611430565b6105d3565b005b61017661018636600461144b565b6105fc565b6009546101189060ff1681565b6101766101a6366004611484565b61070b565b6101186101b9366004611430565b600b6020526000908152604090205460ff1681565b6101766107cc565b6101766101e43660046114a1565b610876565b6101fc6101f73660046114db565b6108d5565b604051610124969594939291906114f4565b6000546001600160a01b03165b6040516001600160a01b039091168152602001610124565b7f000000000000000000000000000000000000000000000000000000000000000061021b565b610176610267366004611430565b610ac6565b61017661027a366004611484565b610af2565b61015561028d366004611694565b610b03565b60006001600160e01b031982166385572ffb60e01b14806102c357506001600160e01b031982166301ffc9a760e01b145b92915050565b6102d1611222565b6102d9610b92565b60095460ff161561052257600a5460009081526008602052604090819020815160c081019092528054829060ff166004811115610318576103186112a7565b6004811115610329576103296112a7565b815260408051808201825260018401548152600284015460208281019190915280840191909152815190810182526003840154815290820152600482018054606090920191610377906116f3565b80601f01602080910402602001604051908101604052809291908181526020018280546103a3906116f3565b80156103f05780601f106103c5576101008083540402835291602001916103f0565b820191906000526020600020905b8154815290600101906020018083116103d357829003601f168201915b50505050508152602001600582018054610409906116f3565b80601f0160208091040260200160405190810160405280929190818152602001828054610435906116f3565b80156104825780601f1061045757610100808354040283529160200191610482565b820191906000526020600020905b81548152906001019060200180831161046557829003601f168201915b5050505050815260200160068201805461049b906116f3565b80601f01602080910402602001604051908101604052809291908181526020018280546104c7906116f3565b80156105145780601f106104e957610100808354040283529160200191610514565b820191906000526020600020905b8154815290600101906020018083116104f757829003601f168201915b505050505081525050905090565b60405163990d65ed60e01b815260040160405180910390fd5b60006105cc83836040518060c0016040528060026004811115610560576105606112a7565b8152604080518082018252600454815260055460208281019190915280840191909152815180820183526006548152828401528151808201835260008082526060850191909152825180830184528181526080850152825191820190925290815260a090910152610be7565b9392505050565b6105db610b92565b6001600160401b03166000908152600b60205260409020805460ff19169055565b610604610b92565b6040516370a0823160e01b81523060048201526000906001600160a01b038316906370a0823190602401602060405180830381865afa15801561064b573d6000803e3d6000fd5b505050506040513d601f19601f8201168201806040525081019061066f919061172d565b90508060000361069257604051630686827b60e51b815260040160405180910390fd5b60405163a9059cbb60e01b81526001600160a01b0384811660048301526024820183905283169063a9059cbb906044016020604051808303816000875af11580156106e1573d6000803e3d6000fd5b505050506040513d601f19601f820116820180604052508101906107059190611746565b50505050565b610713610b92565b47600081900361073657604051630686827b60e51b815260040160405180910390fd5b6000826001600160a01b03168260405160006040518083038185875af1925050503d8060008114610783576040519150601f19603f3d011682016040523d82523d6000602084013e610788565b606091505b50509050806107c757604051639d11f56360e01b81523360048201526001600160a01b0384166024820152604481018390526064015b60405180910390fd5b505050565b6001546001600160a01b0316331461081f5760405162461bcd60e51b815260206004820152601660248201527526bab9ba10313290383937b837b9b2b21037bbb732b960511b60448201526064016107be565b60008054336001600160a01b0319808316821784556001805490911690556040516001600160a01b0390921692909183917f8be0079c531659141344cd1fd0a4f28419497f9722a3daafe3b4186f6b6457e091a350565b336001600160a01b037f000000000000000000000000000000000000000000000000000000000000000016146108c1576040516335fdcccd60e21b81523360048201526024016107be565b6108d26108cd82611814565b610ffc565b50565b6008602090815260009182526040918290208054835180850185526001830154815260028301548185015284519384019094526003820154835260048201805460ff90921694939291610927906116f3565b80601f0160208091040260200160405190810160405280929190818152602001828054610953906116f3565b80156109a05780601f10610975576101008083540402835291602001916109a0565b820191906000526020600020905b81548152906001019060200180831161098357829003601f168201915b5050505050908060050180546109b5906116f3565b80601f01602080910402602001604051908101604052809291908181526020018280546109e1906116f3565b8015610a2e5780601f10610a0357610100808354040283529160200191610a2e565b820191906000526020600020905b815481529060010190602001808311610a1157829003601f168201915b505050505090806006018054610a43906116f3565b80601f0160208091040260200160405190810160405280929190818152602001828054610a6f906116f3565b8015610abc5780601f10610a9157610100808354040283529160200191610abc565b820191906000526020600020905b815481529060010190602001808311610a9f57829003601f168201915b5050505050905086565b610ace610b92565b6001600160401b03166000908152600b60205260409020805460ff19166001179055565b610afa610b92565b6108d281611179565b6000610b8a84846040518060c0016040528060026004811115610b2857610b286112a7565b81526040805180820182526004548152600554602082810191909152808401919091528151808201835260065481528284015281518082018352600080825260608501919091528251918201909252908152608082015260a001869052610be7565b949350505050565b6000546001600160a01b03163314610be55760405162461bcd60e51b815260206004820152601660248201527527b7363c9031b0b63630b1363290313c9037bbb732b960511b60448201526064016107be565b565b6040805160a081019091526001600160a01b03841660c082015260009081908060e08101604051602081830303815290604052815260200184604051602001610c30919061132f565b60408051601f1981840301815291905281526020016000604051908082528060200260200182016040528015610c8c57816020015b6040805180820190915260008082526020820152815260200190600190039081610c655790505b5081526002546001600160a01b0390811660208084019190915260408051918201815260008083529381019190915260035490516320487ded60e01b815293945091929116906320487ded90610ce890889086906004016118c0565b602060405180830381865afa158015610d05573d6000803e3d6000fd5b505050506040513d601f19601f82011682018060405250810190610d29919061172d565b6002546040516370a0823160e01b81523060048201529192506001600160a01b0316906370a0823190602401602060405180830381865afa158015610d72573d6000803e3d6000fd5b505050506040513d601f19601f82011682018060405250810190610d96919061172d565b811115610e2d576002546040516370a0823160e01b81523060048201526001600160a01b03909116906370a0823190602401602060405180830381865afa158015610de5573d6000803e3d6000fd5b505050506040513d601f19601f82011682018060405250810190610e09919061172d565b604051634787a10360e11b81526004810191909152602481018290526044016107be565b60025460035460405163095ea7b360e01b81526001600160a01b0391821660048201526024810184905291169063095ea7b3906044016020604051808303816000875af1158015610e82573d6000803e3d6000fd5b505050506040513d601f19601f82011682018060405250810190610ea69190611746565b506003546040516396f4e9f960e01b81526001600160a01b03909116906396f4e9f990610ed990889086906004016118c0565b6020604051808303816000875af1158015610ef8573d6000803e3d6000fd5b505050506040513d601f19601f82011682018060405250810190610f1c919061172d565b6000818152600860205260409020855181549295508692829060ff19166001836004811115610f4d57610f4d6112a7565b02179055506020828101518051600184015501516002820155604082015151600382015560608201516004820190610f8590826119e7565b5060808201516005820190610f9a90826119e7565b5060a08201516006820190610faf90826119e7565b5050845160808601516040517fbd1f1022102dd0f6eaefd3c92f46366d546448ab8807673ec2bc185dd73d6bfc9350610feb928a929091611aa6565b60405180910390a150509392505050565b6020808201516001600160401b0381166000908152600b90925260409091205460ff1661104757604051632328ea8d60e11b81526001600160401b03821660048201526024016107be565b81516007556060820151805160009161106891810160209081019101611b9a565b83516000908152600860205260409020815181549293508392829060ff1916600183600481111561109b5761109b6112a7565b021790555060208281015180516001840155015160028201556040820151516003820155606082015160048201906110d390826119e7565b50608082015160058201906110e890826119e7565b5060a082015160068201906110fd90826119e7565b509050506000836040015180602001905181019061111b9190611c83565b905083602001516001600160401b031684600001517f4e3534816d92b985a6dbde0bbcb13c3fc3d0df4d8e5a4383075085127487354a838560000151866080015160405161116b93929190611aa6565b60405180910390a350505050565b336001600160a01b038216036111d15760405162461bcd60e51b815260206004820152601760248201527f43616e6e6f74207472616e7366657220746f2073656c6600000000000000000060448201526064016107be565b600180546001600160a01b0319166001600160a01b0383811691821790925560008054604051929316917fed8889f560326eb138920d842192f0eb3dd22b4f139c87a2c57538e05bae12789190a350565b6040805160c081019091528060008152602001611252604051806040016040528060008152602001600081525090565b8152604080516020808201835260008252830152606090820181905280820181905260809091015290565b60006020828403121561128f57600080fd5b81356001600160e01b0319811681146105cc57600080fd5b634e487b7160e01b600052602160045260246000fd5b600581106112db57634e487b7160e01b600052602160045260246000fd5b9052565b60005b838110156112fa5781810151838201526020016112e2565b50506000910152565b6000815180845261131b8160208601602086016112df565b601f01601f19169290920160200192915050565b602081526113416020820183516112bd565b6000602083015161135f604084018280518252602090810151910152565b506040830151516080830152606083015160e060a0840152611385610100840182611303565b90506080840151601f19808584030160c08601526113a38383611303565b925060a08601519150808584030160e0860152506113c18282611303565b95945050505050565b6001600160a01b03811681146108d257600080fd5b80356001600160401b03811681146113f657600080fd5b919050565b6000806040838503121561140e57600080fd5b8235611419816113ca565b9150611427602084016113df565b90509250929050565b60006020828403121561144257600080fd5b6105cc826113df565b6000806040838503121561145e57600080fd5b8235611469816113ca565b91506020830135611479816113ca565b809150509250929050565b60006020828403121561149657600080fd5b81356105cc816113ca565b6000602082840312156114b357600080fd5b81356001600160401b038111156114c957600080fd5b820160a081850312156105cc57600080fd5b6000602082840312156114ed57600080fd5b5035919050565b6114fe81886112bd565b611515602082018780518252602090810151910152565b8451606082015260e06080820152600061153260e0830186611303565b82810360a08401526115448186611303565b905082810360c08401526115588185611303565b9998505050505050505050565b634e487b7160e01b600052604160045260246000fd5b604080519081016001600160401b038111828210171561159d5761159d611565565b60405290565b60405160a081016001600160401b038111828210171561159d5761159d611565565b60405160c081016001600160401b038111828210171561159d5761159d611565565b604051601f8201601f191681016001600160401b038111828210171561160f5761160f611565565b604052919050565b60006001600160401b0382111561163057611630611565565b50601f01601f191660200190565b600082601f83011261164f57600080fd5b813561166261165d82611617565b6115e7565b81815284602083860101111561167757600080fd5b816020850160208301376000918101602001919091529392505050565b6000806000606084860312156116a957600080fd5b83356116b4816113ca565b92506116c2602085016113df565b915060408401356001600160401b038111156116dd57600080fd5b6116e98682870161163e565b9150509250925092565b600181811c9082168061170757607f821691505b60208210810361172757634e487b7160e01b600052602260045260246000fd5b50919050565b60006020828403121561173f57600080fd5b5051919050565b60006020828403121561175857600080fd5b815180151581146105cc57600080fd5b600082601f83011261177957600080fd5b813560206001600160401b0382111561179457611794611565565b6117a2818360051b016115e7565b82815260069290921b840181019181810190868411156117c157600080fd5b8286015b8481101561180957604081890312156117de5760008081fd5b6117e661157b565b81356117f1816113ca565b815281850135858201528352918301916040016117c5565b509695505050505050565b600060a0823603121561182657600080fd5b61182e6115a3565b8235815261183e602084016113df565b602082015260408301356001600160401b038082111561185d57600080fd5b6118693683870161163e565b6040840152606085013591508082111561188257600080fd5b61188e3683870161163e565b606084015260808501359150808211156118a757600080fd5b506118b436828601611768565b60808301525092915050565b600060406001600160401b038516835260208181850152845160a0838601526118ec60e0860182611303565b905081860151603f19808784030160608801526119098383611303565b88860151888203830160808a01528051808352908601945060009350908501905b8084101561195c57845180516001600160a01b031683528601518683015293850193600193909301929086019061192a565b5060608901516001600160a01b031660a08901526080890151888203830160c08a0152955061198b8187611303565b9a9950505050505050505050565b601f8211156107c757600081815260208120601f850160051c810160208610156119c05750805b601f850160051c820191505b818110156119df578281556001016119cc565b505050505050565b81516001600160401b03811115611a0057611a00611565565b611a1481611a0e84546116f3565b84611999565b602080601f831160018114611a495760008415611a315750858301515b600019600386901b1c1916600185901b1785556119df565b600085815260208120601f198616915b82811015611a7857888601518255948401946001909101908401611a59565b5085821015611a965787850151600019600388901b60f8161c191681555b5050505050600190811b01905550565b6001600160a01b0384168152611abf60208201846112bd565b6060604082015260006113c16060830184611303565b8051600581106113f657600080fd5b600060408284031215611af657600080fd5b611afe61157b565b9050815181526020820151602082015292915050565b600060208284031215611b2657600080fd5b604051602081018181106001600160401b0382111715611b4857611b48611565565b6040529151825250919050565b600082601f830112611b6657600080fd5b8151611b7461165d82611617565b818152846020838601011115611b8957600080fd5b610b8a8260208301602087016112df565b600060208284031215611bac57600080fd5b81516001600160401b0380821115611bc357600080fd5b9083019060e08286031215611bd757600080fd5b611bdf6115c5565b611be883611ad5565b8152611bf78660208501611ae4565b6020820152611c098660608501611b14565b6040820152608083015182811115611c2057600080fd5b611c2c87828601611b55565b60608301525060a083015182811115611c4457600080fd5b611c5087828601611b55565b60808301525060c083015182811115611c6857600080fd5b611c7487828601611b55565b60a08301525095945050505050565b600060208284031215611c9557600080fd5b81516105cc816113ca56fea26469706673582212208bc3423368bbfef4bd76d7fc67d97856a9b8492a5eb030baf0011a3547f5c0c564736f6c63430008130033","linkReferences":{}},"methodIdentifiers":{"acceptOwnership()":"79ba5097","ccipReceive((bytes32,uint64,bytes,bytes,(address,uint256)[]))":"85572ffb","denylistChain(uint64)":"34625dcc","getRouter()":"b0f479a1","getSupplyProofRequestMessage()":"0d74c456","isSupplyProofRequested()":"4d0fdf83","messageStack(bytes32)":"8d343465","owner()":"8da5cb5b","provideEthPubkey(address,uint64)":"30fcc366","provideSupplyProof(address,uint64,bytes)":"f8ec3ced","supportsInterface(bytes4)":"01ffc9a7","transferOwnership(address)":"f2fde38b","whitelistChain(uint64)":"d345ac7d","whitelistedChains(uint64)":"763574f6","withdraw(address)":"51cff8d9","withdrawToken(address,address)":"3aeac4e1"},"id":29}