{"abi":[{"type":"constructor","inputs":[{"name":"_router","type":"address","internalType":"address"},{"name":"_link","type":"address","internalType":"address"}],"stateMutability":"nonpayable"},{"type":"function","name":"acceptOwnership","inputs":[],"outputs":[],"stateMutability":"nonpayable"},{"type":"function","name":"ccipReceive","inputs":[{"name":"message","type":"tuple","internalType":"struct Client.Any2EVMMessage","components":[{"name":"messageId","type":"bytes32","internalType":"bytes32"},{"name":"sourceChainSelector","type":"uint64","internalType":"uint64"},{"name":"sender","type":"bytes","internalType":"bytes"},{"name":"data","type":"bytes","internalType":"bytes"},{"name":"destTokenAmounts","type":"tuple[]","internalType":"struct Client.EVMTokenAmount[]","components":[{"name":"token","type":"address","internalType":"address"},{"name":"amount","type":"uint256","internalType":"uint256"}]}]}],"outputs":[],"stateMutability":"nonpayable"},{"type":"function","name":"denylistChain","inputs":[{"name":"_destinationChainSelector","type":"uint64","internalType":"uint64"}],"outputs":[],"stateMutability":"nonpayable"},{"type":"function","name":"getRouter","inputs":[],"outputs":[{"name":"","type":"address","internalType":"address"}],"stateMutability":"view"},{"type":"function","name":"getSupplyProofRequestMessage","inputs":[],"outputs":[{"name":"","type":"tuple","internalType":"struct TradeEntity.TradeMessage","components":[{"name":"operation","type":"uint8","internalType":"enum TradeEntity.OperationType"},{"name":"circomPubkey","type":"tuple","internalType":"struct TradeEntity.CircomPubkey","components":[{"name":"Ax","type":"uint256","internalType":"uint256"},{"name":"Ay","type":"uint256","internalType":"uint256"}]},{"name":"ethPubkey","type":"tuple","internalType":"struct TradeEntity.EthPubkey","components":[{"name":"value","type":"bytes32","internalType":"bytes32"}]},{"name":"encryptedRequest","type":"bytes","internalType":"bytes"},{"name":"message","type":"string","internalType":"string"},{"name":"proof","type":"bytes","internalType":"bytes"}]}],"stateMutability":"view"},{"type":"function","name":"isSupplyProofRequested","inputs":[],"outputs":[{"name":"","type":"bool","internalType":"bool"}],"stateMutability":"view"},{"type":"function","name":"messageStack","inputs":[{"name":"","type":"bytes32","internalType":"bytes32"}],"outputs":[{"name":"operation","type":"uint8","internalType":"enum TradeEntity.OperationType"},{"name":"circomPubkey","type":"tuple","internalType":"struct TradeEntity.CircomPubkey","components":[{"name":"Ax","type":"uint256","internalType":"uint256"},{"name":"Ay","type":"uint256","internalType":"uint256"}]},{"name":"ethPubkey","type":"tuple","internalType":"struct TradeEntity.EthPubkey","components":[{"name":"value","type":"bytes32","internalType":"bytes32"}]},{"name":"encryptedRequest","type":"bytes","internalType":"bytes"},{"name":"message","type":"string","internalType":"string"},{"name":"proof","type":"bytes","internalType":"bytes"}],"stateMutability":"view"},{"type":"function","name":"owner","inputs":[],"outputs":[{"name":"","type":"address","internalType":"address"}],"stateMutability":"view"},{"type":"function","name":"provideEthPubkey","inputs":[{"name":"buyerAddress","type":"address","internalType":"address"},{"name":"buyerChainId","type":"uint64","internalType":"uint64"}],"outputs":[{"name":"messageId","type":"bytes32","internalType":"bytes32"}],"stateMutability":"nonpayable"},{"type":"function","name":"provideSupplyProof","inputs":[{"name":"buyerAddress","type":"address","internalType":"address"},{"name":"buyerChainId","type":"uint64","internalType":"uint64"},{"name":"proof","type":"bytes","internalType":"bytes"}],"outputs":[{"name":"messageId","type":"bytes32","internalType":"bytes32"}],"stateMutability":"nonpayable"},{"type":"function","name":"setCircomPubkey","inputs":[{"name":"Ax","type":"uint256","internalType":"uint256"},{"name":"Ay","type":"uint256","internalType":"uint256"}],"outputs":[],"stateMutability":"nonpayable"},{"type":"function","name":"setEthPubkey","inputs":[{"name":"_ethPubkeyValue","type":"bytes32","internalType":"bytes32"}],"outputs":[],"stateMutability":"nonpayable"},{"type":"function","name":"supportsInterface","inputs":[{"name":"interfaceId","type":"bytes4","internalType":"bytes4"}],"outputs":[{"name":"","type":"bool","internalType":"bool"}],"stateMutability":"pure"},{"type":"function","name":"transferOwnership","inputs":[{"name":"to","type":"address","internalType":"address"}],"outputs":[],"stateMutability":"nonpayable"},{"type":"function","name":"whitelistChain","inputs":[{"name":"_destinationChainSelector","type":"uint64","internalType":"uint64"}],"outputs":[],"stateMutability":"nonpayable"},{"type":"function","name":"whitelistedChains","inputs":[{"name":"","type":"uint64","internalType":"uint64"}],"outputs":[{"name":"","type":"bool","internalType":"bool"}],"stateMutability":"view"},{"type":"function","name":"withdraw","inputs":[{"name":"_beneficiary","type":"address","internalType":"address"}],"outputs":[],"stateMutability":"nonpayable"},{"type":"function","name":"withdrawToken","inputs":[{"name":"_beneficiary","type":"address","internalType":"address"},{"name":"_token","type":"address","internalType":"address"}],"outputs":[],"stateMutability":"nonpayable"},{"type":"event","name":"MessageReceived","inputs":[{"name":"messageId","type":"bytes32","indexed":true,"internalType":"bytes32"},{"name":"sourceChainSelector","type":"uint64","indexed":true,"internalType":"uint64"},{"name":"sender","type":"address","indexed":false,"internalType":"address"},{"name":"operation","type":"uint8","indexed":false,"internalType":"enum TradeEntity.OperationType"},{"name":"text","type":"string","indexed":false,"internalType":"string"}],"anonymous":false},{"type":"event","name":"MessageSent","inputs":[{"name":"receiver","type":"address","indexed":false,"internalType":"address"},{"name":"operation","type":"uint8","indexed":false,"internalType":"enum TradeEntity.OperationType"},{"name":"text","type":"string","indexed":false,"internalType":"string"}],"anonymous":false},{"type":"event","name":"OwnershipTransferRequested","inputs":[{"name":"from","type":"address","indexed":true,"internalType":"address"},{"name":"to","type":"address","indexed":true,"internalType":"address"}],"anonymous":false},{"type":"event","name":"OwnershipTransferred","inputs":[{"name":"from","type":"address","indexed":true,"internalType":"address"},{"name":"to","type":"address","indexed":true,"internalType":"address"}],"anonymous":false},{"type":"error","name":"DestinationChainNotAllowlisted","inputs":[{"name":"destinationChainSelector","type":"uint64","internalType":"uint64"}]},{"type":"error","name":"DestinationChainNotWhitelisted","inputs":[{"name":"destinationChainSelector","type":"uint64","internalType":"uint64"}]},{"type":"error","name":"FailedToWithdrawEth","inputs":[{"name":"owner","type":"address","internalType":"address"},{"name":"target","type":"address","internalType":"address"},{"name":"value","type":"uint256","internalType":"uint256"}]},{"type":"error","name":"InvalidRouter","inputs":[{"name":"router","type":"address","internalType":"address"}]},{"type":"error","name":"NoSupplyProofRequested","inputs":[]},{"type":"error","name":"NotEnoughBalance","inputs":[{"name":"currentBalance","type":"uint256","internalType":"uint256"},{"name":"calculatedFees","type":"uint256","internalType":"uint256"}]},{"type":"error","name":"NothingToWithdraw","inputs":[]},{"type":"error","name":"SenderNotAllowlisted","inputs":[{"name":"sender","type":"address","internalType":"address"}]},{"type":"error","name":"SourceChainNotAllowlisted","inputs":[{"name":"sourceChainSelector","type":"uint64","internalType":"uint64"}]},{"type":"error","name":"UnknownOperation","inputs":[]}],"bytecode":{"object":"0x60a06040523480156200001157600080fd5b50604051620026ef380380620026ef833981016040819052620000349162000252565b81818133806000816200008e5760405162461bcd60e51b815260206004820152601860248201527f43616e6e6f7420736574206f776e657220746f207a65726f000000000000000060448201526064015b60405180910390fd5b600080546001600160a01b0319166001600160a01b0384811691909117909155811615620000c157620000c1816200017c565b5050506001600160a01b038116620000f0576040516335fdcccd60e21b81526000600482015260240162000085565b6001600160a01b03908116608052600380546001600160a01b03199081168584161790915560028054909116918316919091179055604051620001339062000227565b604051809103906000f08015801562000150573d6000803e3d6000fd5b50600980546001600160a01b0319166001600160a01b0392909216919091179055506200028a92505050565b336001600160a01b03821603620001d65760405162461bcd60e51b815260206004820152601760248201527f43616e6e6f74207472616e7366657220746f2073656c66000000000000000000604482015260640162000085565b600180546001600160a01b0319166001600160a01b0383811691821790925560008054604051929316917fed8889f560326eb138920d842192f0eb3dd22b4f139c87a2c57538e05bae12789190a350565b61064480620020ab83390190565b80516001600160a01b03811681146200024d57600080fd5b919050565b600080604083850312156200026657600080fd5b620002718362000235565b9150620002816020840162000235565b90509250929050565b608051611dfe620002ad6000396000818161025e01526109020152611dfe6000f3fe608060405234801561001057600080fd5b50600436106101165760003560e01c806385572ffb116100a2578063b0f479a111610071578063b0f479a11461025c578063bb0be80114610282578063d345ac7d14610295578063f2fde38b146102a8578063f8ec3ced146102bb57600080fd5b806385572ffb146101ec5780638d343465146101ff5780638da5cb5b1461022457806399942b961461024957600080fd5b80633aeac4e1116100e95780633aeac4e11461018e5780634d0fdf83146101a157806351cff8d9146101ae578063763574f6146101c157806379ba5097146101e457600080fd5b806301ffc9a71461011b5780630d74c4561461014357806330fcc3661461015857806334625dcc14610179575b600080fd5b61012e61012936600461137c565b6102ce565b60405190151581526020015b60405180910390f35b61014b610305565b60405161013a9190611435565b61016b610166366004611501565b610577565b60405190815260200161013a565b61018c610187366004611536565b610659565b005b61018c61019c366004611551565b610682565b600b5461012e9060ff1681565b61018c6101bc36600461158a565b610791565b61012e6101cf366004611536565b600a6020526000908152604090205460ff1681565b61018c61084d565b61018c6101fa3660046115a7565b6108f7565b61021261020d3660046115e1565b610956565b60405161013a969594939291906115fa565b6000546001600160a01b03165b6040516001600160a01b03909116815260200161013a565b61018c61025736600461166b565b610b47565b7f0000000000000000000000000000000000000000000000000000000000000000610231565b61018c6102903660046115e1565b610b6d565b61018c6102a3366004611536565b610b88565b61018c6102b636600461158a565b610bb4565b61016b6102c93660046117bc565b610bc5565b60006001600160e01b031982166385572ffb60e01b14806102ff57506001600160e01b031982166301ffc9a760e01b145b92915050565b61030d611321565b610315610c4c565b600b5460ff161561055e57600c5460009081526008602052604090819020815160c081019092528054829060ff166004811115610354576103546113ad565b6004811115610365576103656113ad565b8152604080518082018252600184015481526002840154602082810191909152808401919091528151908101825260038401548152908201526004820180546060909201916103b39061181b565b80601f01602080910402602001604051908101604052809291908181526020018280546103df9061181b565b801561042c5780601f106104015761010080835404028352916020019161042c565b820191906000526020600020905b81548152906001019060200180831161040f57829003601f168201915b505050505081526020016005820180546104459061181b565b80601f01602080910402602001604051908101604052809291908181526020018280546104719061181b565b80156104be5780601f10610493576101008083540402835291602001916104be565b820191906000526020600020905b8154815290600101906020018083116104a157829003601f168201915b505050505081526020016006820180546104d79061181b565b80601f01602080910402602001604051908101604052809291908181526020018280546105039061181b565b80156105505780601f1061052557610100808354040283529160200191610550565b820191906000526020600020905b81548152906001019060200180831161053357829003601f168201915b505050505081525050905090565b60405163990d65ed60e01b815260040160405180910390fd5b6001600160401b0381166000908152600a6020526040812054829060ff166105c257604051632328ea8d60e11b81526001600160401b03821660048201526024015b60405180910390fd5b61065184846040518060c00160405280600260048111156105e5576105e56113ad565b8152604080518082018252600454815260055460208281019190915280840191909152815180820183526006548152828401528151808201835260008082526060850191909152825180830184528181526080850152825191820190925290815260a090910152610ca1565b949350505050565b610661610c4c565b6001600160401b03166000908152600a60205260409020805460ff19169055565b61068a610c4c565b6040516370a0823160e01b81523060048201526000906001600160a01b038316906370a0823190602401602060405180830381865afa1580156106d1573d6000803e3d6000fd5b505050506040513d601f19601f820116820180604052508101906106f59190611855565b90508060000361071857604051630686827b60e51b815260040160405180910390fd5b60405163a9059cbb60e01b81526001600160a01b0384811660048301526024820183905283169063a9059cbb906044016020604051808303816000875af1158015610767573d6000803e3d6000fd5b505050506040513d601f19601f8201168201806040525081019061078b919061186e565b50505050565b610799610c4c565b4760008190036107bc57604051630686827b60e51b815260040160405180910390fd5b6000826001600160a01b03168260405160006040518083038185875af1925050503d8060008114610809576040519150601f19603f3d011682016040523d82523d6000602084013e61080e565b606091505b505090508061084857604051639d11f56360e01b81523360048201526001600160a01b0384166024820152604481018390526064016105b9565b505050565b6001546001600160a01b031633146108a05760405162461bcd60e51b815260206004820152601660248201527526bab9ba10313290383937b837b9b2b21037bbb732b960511b60448201526064016105b9565b60008054336001600160a01b0319808316821784556001805490911690556040516001600160a01b0390921692909183917f8be0079c531659141344cd1fd0a4f28419497f9722a3daafe3b4186f6b6457e091a350565b336001600160a01b037f00000000000000000000000000000000000000000000000000000000000000001614610942576040516335fdcccd60e21b81523360048201526024016105b9565b61095361094e8261193c565b6110fb565b50565b6008602090815260009182526040918290208054835180850185526001830154815260028301548185015284519384019094526003820154835260048201805460ff909216949392916109a89061181b565b80601f01602080910402602001604051908101604052809291908181526020018280546109d49061181b565b8015610a215780601f106109f657610100808354040283529160200191610a21565b820191906000526020600020905b815481529060010190602001808311610a0457829003601f168201915b505050505090806005018054610a369061181b565b80601f0160208091040260200160405190810160405280929190818152602001828054610a629061181b565b8015610aaf5780601f10610a8457610100808354040283529160200191610aaf565b820191906000526020600020905b815481529060010190602001808311610a9257829003601f168201915b505050505090806006018054610ac49061181b565b80601f0160208091040260200160405190810160405280929190818152602001828054610af09061181b565b8015610b3d5780601f10610b1257610100808354040283529160200191610b3d565b820191906000526020600020905b815481529060010190602001808311610b2057829003601f168201915b5050505050905086565b610b4f610c4c565b60408051808201909152828152602001819052600491909155600555565b610b75610c4c565b6040805160208101909152819052600655565b610b90610c4c565b6001600160401b03166000908152600a60205260409020805460ff19166001179055565b610bbc610c4c565b61095381611278565b600061065184846040518060c0016040528060026004811115610bea57610bea6113ad565b81526040805180820182526004548152600554602082810191909152808401919091528151808201835260065481528284015281518082018352600080825260608501919091528251918201909252908152608082015260a001869052610ca1565b6000546001600160a01b03163314610c9f5760405162461bcd60e51b815260206004820152601660248201527527b7363c9031b0b63630b1363290313c9037bbb732b960511b60448201526064016105b9565b565b6001600160401b0382166000908152600a6020526040812054839060ff16610ce757604051632328ea8d60e11b81526001600160401b03821660048201526024016105b9565b6040805160a081019091526001600160a01b03861660c08201526000908060e08101604051602081830303815290604052815260200185604051602001610d2e9190611435565b60408051601f1981840301815291905281526020016000604051908082528060200260200182016040528015610d8a57816020015b6040805180820190915260008082526020820152815260200190600190039081610d635790505b5081526002546001600160a01b0390811660208084019190915260408051918201815260008083529381019190915260035490516320487ded60e01b815293945091929116906320487ded90610de690899086906004016119e8565b602060405180830381865afa158015610e03573d6000803e3d6000fd5b505050506040513d601f19601f82011682018060405250810190610e279190611855565b6002546040516370a0823160e01b81523060048201529192506001600160a01b0316906370a0823190602401602060405180830381865afa158015610e70573d6000803e3d6000fd5b505050506040513d601f19601f82011682018060405250810190610e949190611855565b811115610f2b576002546040516370a0823160e01b81523060048201526001600160a01b03909116906370a0823190602401602060405180830381865afa158015610ee3573d6000803e3d6000fd5b505050506040513d601f19601f82011682018060405250810190610f079190611855565b604051634787a10360e11b81526004810191909152602481018290526044016105b9565b60025460035460405163095ea7b360e01b81526001600160a01b0391821660048201526024810184905291169063095ea7b3906044016020604051808303816000875af1158015610f80573d6000803e3d6000fd5b505050506040513d601f19601f82011682018060405250810190610fa4919061186e565b506003546040516396f4e9f960e01b81526001600160a01b03909116906396f4e9f990610fd790899086906004016119e8565b6020604051808303816000875af1158015610ff6573d6000803e3d6000fd5b505050506040513d601f19601f8201168201806040525081019061101a9190611855565b6000818152600860205260409020865181549296508792829060ff1916600183600481111561104b5761104b6113ad565b021790555060208281015180516001840155015160028201556040820151516003820155606082015160048201906110839082611b0f565b50608082015160058201906110989082611b0f565b5060a082015160068201906110ad9082611b0f565b5050855160808701516040517fbd1f1022102dd0f6eaefd3c92f46366d546448ab8807673ec2bc185dd73d6bfc93506110e9928b929091611bce565b60405180910390a15050509392505050565b6020808201516001600160401b0381166000908152600a90925260409091205460ff1661114657604051632328ea8d60e11b81526001600160401b03821660048201526024016105b9565b81516007556060820151805160009161116791810160209081019101611cc2565b83516000908152600860205260409020815181549293508392829060ff1916600183600481111561119a5761119a6113ad565b021790555060208281015180516001840155015160028201556040820151516003820155606082015160048201906111d29082611b0f565b50608082015160058201906111e79082611b0f565b5060a082015160068201906111fc9082611b0f565b509050506000836040015180602001905181019061121a9190611dab565b905083602001516001600160401b031684600001517f4e3534816d92b985a6dbde0bbcb13c3fc3d0df4d8e5a4383075085127487354a838560000151866080015160405161126a93929190611bce565b60405180910390a350505050565b336001600160a01b038216036112d05760405162461bcd60e51b815260206004820152601760248201527f43616e6e6f74207472616e7366657220746f2073656c6600000000000000000060448201526064016105b9565b600180546001600160a01b0319166001600160a01b0383811691821790925560008054604051929316917fed8889f560326eb138920d842192f0eb3dd22b4f139c87a2c57538e05bae12789190a350565b6040805160c081019091528060008152602001611351604051806040016040528060008152602001600081525090565b8152604080516020808201835260008252830152606090820181905280820181905260809091015290565b60006020828403121561138e57600080fd5b81356001600160e01b0319811681146113a657600080fd5b9392505050565b634e487b7160e01b600052602160045260246000fd5b600581106113e157634e487b7160e01b600052602160045260246000fd5b9052565b60005b838110156114005781810151838201526020016113e8565b50506000910152565b600081518084526114218160208601602086016113e5565b601f01601f19169290920160200192915050565b602081526114476020820183516113c3565b60006020830151611465604084018280518252602090810151910152565b506040830151516080830152606083015160e060a084015261148b610100840182611409565b90506080840151601f19808584030160c08601526114a98383611409565b925060a08601519150808584030160e0860152506114c78282611409565b95945050505050565b6001600160a01b038116811461095357600080fd5b80356001600160401b03811681146114fc57600080fd5b919050565b6000806040838503121561151457600080fd5b823561151f816114d0565b915061152d602084016114e5565b90509250929050565b60006020828403121561154857600080fd5b6113a6826114e5565b6000806040838503121561156457600080fd5b823561156f816114d0565b9150602083013561157f816114d0565b809150509250929050565b60006020828403121561159c57600080fd5b81356113a6816114d0565b6000602082840312156115b957600080fd5b81356001600160401b038111156115cf57600080fd5b820160a081850312156113a657600080fd5b6000602082840312156115f357600080fd5b5035919050565b61160481886113c3565b61161b602082018780518252602090810151910152565b8451606082015260e06080820152600061163860e0830186611409565b82810360a084015261164a8186611409565b905082810360c084015261165e8185611409565b9998505050505050505050565b6000806040838503121561167e57600080fd5b50508035926020909101359150565b634e487b7160e01b600052604160045260246000fd5b604080519081016001600160401b03811182821017156116c5576116c561168d565b60405290565b60405160a081016001600160401b03811182821017156116c5576116c561168d565b60405160c081016001600160401b03811182821017156116c5576116c561168d565b604051601f8201601f191681016001600160401b03811182821017156117375761173761168d565b604052919050565b60006001600160401b038211156117585761175861168d565b50601f01601f191660200190565b600082601f83011261177757600080fd5b813561178a6117858261173f565b61170f565b81815284602083860101111561179f57600080fd5b816020850160208301376000918101602001919091529392505050565b6000806000606084860312156117d157600080fd5b83356117dc816114d0565b92506117ea602085016114e5565b915060408401356001600160401b0381111561180557600080fd5b61181186828701611766565b9150509250925092565b600181811c9082168061182f57607f821691505b60208210810361184f57634e487b7160e01b600052602260045260246000fd5b50919050565b60006020828403121561186757600080fd5b5051919050565b60006020828403121561188057600080fd5b815180151581146113a657600080fd5b600082601f8301126118a157600080fd5b813560206001600160401b038211156118bc576118bc61168d565b6118ca818360051b0161170f565b82815260069290921b840181019181810190868411156118e957600080fd5b8286015b8481101561193157604081890312156119065760008081fd5b61190e6116a3565b8135611919816114d0565b815281850135858201528352918301916040016118ed565b509695505050505050565b600060a0823603121561194e57600080fd5b6119566116cb565b82358152611966602084016114e5565b602082015260408301356001600160401b038082111561198557600080fd5b61199136838701611766565b604084015260608501359150808211156119aa57600080fd5b6119b636838701611766565b606084015260808501359150808211156119cf57600080fd5b506119dc36828601611890565b60808301525092915050565b600060406001600160401b038516835260208181850152845160a083860152611a1460e0860182611409565b905081860151603f1980878403016060880152611a318383611409565b88860151888203830160808a01528051808352908601945060009350908501905b80841015611a8457845180516001600160a01b0316835286015186830152938501936001939093019290860190611a52565b5060608901516001600160a01b031660a08901526080890151888203830160c08a01529550611ab38187611409565b9a9950505050505050505050565b601f82111561084857600081815260208120601f850160051c81016020861015611ae85750805b601f850160051c820191505b81811015611b0757828155600101611af4565b505050505050565b81516001600160401b03811115611b2857611b2861168d565b611b3c81611b36845461181b565b84611ac1565b602080601f831160018114611b715760008415611b595750858301515b600019600386901b1c1916600185901b178555611b07565b600085815260208120601f198616915b82811015611ba057888601518255948401946001909101908401611b81565b5085821015611bbe5787850151600019600388901b60f8161c191681555b5050505050600190811b01905550565b6001600160a01b0384168152611be760208201846113c3565b6060604082015260006114c76060830184611409565b8051600581106114fc57600080fd5b600060408284031215611c1e57600080fd5b611c266116a3565b9050815181526020820151602082015292915050565b600060208284031215611c4e57600080fd5b604051602081018181106001600160401b0382111715611c7057611c7061168d565b6040529151825250919050565b600082601f830112611c8e57600080fd5b8151611c9c6117858261173f565b818152846020838601011115611cb157600080fd5b6106518260208301602087016113e5565b600060208284031215611cd457600080fd5b81516001600160401b0380821115611ceb57600080fd5b9083019060e08286031215611cff57600080fd5b611d076116ed565b611d1083611bfd565b8152611d1f8660208501611c0c565b6020820152611d318660608501611c3c565b6040820152608083015182811115611d4857600080fd5b611d5487828601611c7d565b60608301525060a083015182811115611d6c57600080fd5b611d7887828601611c7d565b60808301525060c083015182811115611d9057600080fd5b611d9c87828601611c7d565b60a08301525095945050505050565b600060208284031215611dbd57600080fd5b81516113a6816114d056fea26469706673582212200cd21ce8d5204963b3239bfa6d24a7585570e9f58a9334a79bca34bdd575bf8d64736f6c63430008130033608060405234801561001057600080fd5b50610624806100206000396000f3fe608060405234801561001057600080fd5b506004361061002b5760003560e01c806311479fea14610030575b600080fd5b61004361003e366004610588565b610057565b604051901515815260200160405180910390f35b6000610519565b7f30644e72e131a029b85045b68181585d97816a916871ca8d3c208c16d87cfd47811061008f576000805260206000f35b50565b600060405183815284602082015285604082015260408160608360076107d05a03fa9150816100c5576000805260206000f35b825160408201526020830151606082015260408360808360066107d05a03fa915050806100f6576000805260206000f35b5050505050565b7f1625a098b02b4ca3240adb3446000022c88a56c95a52c95ce9f2b8f43205184885527f29d01786cb891c52ea933ad3f5cbe56b47212c8f2c8928c78e37f502e5bdc9d860208601526000608086018661019a87357f298ab1f7b8dfddd7b45b1b15734817c3c171700e8118c6f4865bf35d732112907f1b5ee357ddf1ab58fc5ec95a0c75411a80238e9afc18ae1a5c9cf18cf6c3d33b84610092565b6101ea60208801357f02d57112f375abdab6b7ff75a24c23e989a109ba94c082ec76baff2030caf5377f02e0af2b9af0c1b50cd84cb8de902a8d57669898bd27690e50a516958e5c2da584610092565b61023a60408801357f21af9feae20eea52d96e0c420c69787ce901cfb7d95d4ef49e5e36d5232dc2c37f2b90c81f403f80a450fc6375ae9382f6b42f3d6310efe42a297d8b41ef53e1a884610092565b50823581527f30644e72e131a029b85045b68181585d97816a916871ca8d3c208c16d87cfd4760208401357f30644e72e131a029b85045b68181585d97816a916871ca8d3c208c16d87cfd4703066020820152833560408201526020840135606082015260408401356080820152606084013560a08201527f2d4d9aa7e302d9df41749d5507949d05dbea33fbb16c643b22f599a2be6df2e260c08201527f14bedd503c37ceb061d8ec60209fe345ce89830a19230301f076caff004d192660e08201527f0967032fcbf776d1afc985f88877f182d38480a653f2decaa9794cbc3bf3060c6101008201527f0e187847ad4c798374d0d6732bf501847dd68bc0e071241e0213bc7fc13db7ab6101208201527f304cfbd1e08a704a99f5e847d93f8c3caafddec46b7a0d379da69a4d112346a76101408201527f1739c1b1a457a8c7313123d24d2f9192f896b7c63eea05a9d57f06547ad0cec8610160820152600087015161018082015260206000018701516101a08201527f198e9393920d483a7260bfb731fb5d25f1aa493335a9e71297e485b7aef312c26101c08201527f1800deef121f1e76426a00665e5c4479674322d4f75edadd46debd5cd992f6ed6101e08201527f090689d0585ff075ec9e99ad690c3395bc4b313370b38ef355acdadcd122975b6102008201527f12c85ea5db8c6deb4aab71808dcb408fe3d1e7690c43d37b4ce6cc0166fa7daa610220820152843561024082015260208501356102608201527f099473bd051cc09419493e985fdc54358e55aa2551e6597fd08d719e1ef352e26102808201527ea079a37f3707366665fca70533c74cecef8ca4f04ed67ec0ae7f267cc4f37c6102a08201527f25146d67551dacaa34d302018e7737caef2cdc75779d4b7ec6993257aefdc1986102c08201527f11974ceab3cba8ad81356814f187892db45e820408de1a31e59bf6ab05d963646102e08201526020816103008360086107d05a03fa9051169695505050505050565b6040516103808101604052610531600084013561005e565b61053e602084013561005e565b61054b604084013561005e565b610558606084013561005e565b610565818486888a6100fd565b90508060005260206000f35b806040810183101561058257600080fd5b92915050565b6000806000806101608086880312156105a057600080fd5b6105aa8787610571565b945060c08601878111156105bd57600080fd5b6040870194506105cd8882610571565b9350508681870111156105df57600080fd5b5092959194509261010001915056fea2646970667358221220042f2a662859f90892c82629df960f301b5c89de565fa2841924e98b4a5f4dc664736f6c63430008130033","linkReferences":{}},"methodIdentifiers":{"acceptOwnership()":"79ba5097","ccipReceive((bytes32,uint64,bytes,bytes,(address,uint256)[]))":"85572ffb","denylistChain(uint64)":"34625dcc","getRouter()":"b0f479a1","getSupplyProofRequestMessage()":"0d74c456","isSupplyProofRequested()":"4d0fdf83","messageStack(bytes32)":"8d343465","owner()":"8da5cb5b","provideEthPubkey(address,uint64)":"30fcc366","provideSupplyProof(address,uint64,bytes)":"f8ec3ced","setCircomPubkey(uint256,uint256)":"99942b96","setEthPubkey(bytes32)":"bb0be801","supportsInterface(bytes4)":"01ffc9a7","transferOwnership(address)":"f2fde38b","whitelistChain(uint64)":"d345ac7d","whitelistedChains(uint64)":"763574f6","withdraw(address)":"51cff8d9","withdrawToken(address,address)":"3aeac4e1"},"id":40}